S00B00007261312E7372656315
S3150000000000050020813E0000E13C00007D3E00002E
S315000000107D3E00007D3E00007D3E00007D3E0000EE
S315000000200000000000000000000000007D3E00000F
S315000000307D3E0000000000007D3E00007D3E000089
S31500000040A12D0000192D0000312E0000792E000090
S31500000050D5350000A12D0000192D0000312E00001D
S31500000060792E00005933000059330000A12D0000FD
S31100000070192D0000312E0000792E000032
S3150000007C2902100025BC518109079300FFFF75FF6B
S3150000008CFE0D00170100000000000000000000003B
S3150000009C3000170A000000000000000000000011EC
S315000000AC02000208000810010100000000FF000217
S315000000BC0000000000200B000002FF2100000100E0
S315000000CC0000008C000038FF010027003400650793
S315000000DC008705016800C008380000000099C800B8
S315000000EC0300000000000207050606030002C7FF16
S315000000FCDB020000010121000A0000008C00000058
S3150000010C400035004001A1004001A100A0000020E4
S3150000011C000000006C0E0020D40E00203C0F0020C6
S3150000012C00000000000000000000000000000000BD
S3150000013C00000000000000000000000000000000AD
S3150000014C000000000000000000000000000000009D
S3110000015C00000000000000000000000091
S315000001680348044B834202D0034B03B11847704738
S31500000178EC000020EC00002000000000064B0749B8
S31500000188C91A891048BF0131491003D0044B0BB175
S3150000019801481847704700BFEC000020EC0000201B
S315000001A80000000010B5064C237843B9FFF7D8FFC6
S315000001B8044B13B10448AFF300800123237010BD2C
S315000001C8200500200000000084A2000108B5054BA8
S315000001D81BB105490548AFF30080BDE80840FFF7A5
S315000001E8CDBF00BF000000002405002084A2000146
S315000001F808B5012240F20331154802F0A5FE012296
S3150000020840F20621124802F09FFE0121022003F067
S315000002181DFD012240F206210D4802F095FE00223E
S3150000022840F203310A4802F08FFE0121022003F052
S315000002380DFD012240F20621054802F085FEBDE8C3
S315000002480840002240F20621014802F07DBE00BFA8
S31500000258E40C002008B5002240F203310E4802F0F3
S3150000026873FE0121022003F0F1FC012240F206216F
S31500000278094802F069FE0121022003F0E7FC40F27A
S3150000028803310122044802F05FFEBDE8084001215F
S31500000298022003F0DBBC00BFE40C002030B50122CD
S315000002A883B040F20331184802F04EFE01210220C5
S315000002B803F0CCFC012240F20621134802F044FE6A
S315000002C80121022003F0C2FCFB2402E013F0FF0424
S315000002D814D040F203310C480DF1070202F00AFE71
S315000002E89DF80750631E002DF0D12A4640F20621DC
S315000002F8054802F029FE284603B030BD0125FFF760
S31500000308A9FF284603B030BDE40C002038B500220A
S31500000318044640F20621164802F016FE0825230672
S315000003284CBF0122002240F20331114802F00CFEB4
S31500000338012108468C4003F089FC012240F206217F
S315000003480B4802F001FE0121084603F07FFC00225B
S3150000035840F20621064802F0F7FD0121084603F09F
S3150000036875FC6B1E13F0FF05E4B2D8D138BD00BF8B
S31500000378E40C002038B50025FFF73AFF7820FFF790
S31500000388C5FFFFF78BFF0020FFF7C0FFFFF786FFCB
S3150000039865F04F00C0B2FFF7B9FFFFF77FFFFFF721
S315000003A859FFFFF725FF7820FFF7B0FFFFF776FF25
S315000003B80020FFF7ABFFFFF771FF1020FFF7A6FF3E
S315000003C8FFF76CFFFFF746FFFFF712FF7820FFF7EE
S315000003D89DFFFFF763FF0020FFF798FFFFF75EFF1B
S315000003E80020FFF793FF8024FFF758FFFFF732FF3F
S315000003F8FFF7FEFE7820FFF789FFFFF74FFF402043
S31500000408FFF784FFFFF74AFF0020FFF77FFFFFF79C
S3150000041845FFFFF71FFF631E13F0FF04E8D1013500
S31500000428082DA9D138BD00BF2DE9F84F0746144657
S315000004384E1EFFF7DDFE7820FFF768FFFFF72EFF59
S315000004480020FFF763FFFFF729FF781E4000F6003C
S3150000045860F04F00F6B200F0FE004FEA1618FFF7FC
S3150000046855FFFFF71BFFFFF7F5FEFFF7C1FE7820E4
S31500000478FFF74CFF48F01008FFF710FF0020FFF7C2
S3150000048845FFFFF70BFF4046FFF740FFFFF706FF64
S31500000498FFF7E0FEFFF7ACFE7820FFF737FF06F020
S315000004A80806FFF7FBFE0020FFF730FFFFF7F6FE12
S315000004B83046FFF72BFFFFF7F1FEFFF7CBFE3E4D69
S315000004C8203C05F1080A4FEA04190AEB041A05EB61
S315000004D8041414F801BBFFF78BFE7820FFF716FF0C
S315000004E8FFF7DCFE4020FFF711FFFFF7D7FE58465F
S315000004F8FFF70CFFFFF7D2FEFFF7ACFE5445E8D135
S31500000508FFF776FE7820FFF701FFFFF7C7FE00200A
S31500000518FFF7FCFEFFF7C2FE7800013860F04F00D7
S31500000528C0B2FFF7F3FEFFF7B9FEFFF793FEFFF73A
S315000005385FFE7820FFF7EAFEFFF7B0FE0020FFF720
S31500000548E5FEFFF7ABFE4046FFF7E0FEFFF7A6FE27
S31500000558FFF780FEFFF74CFE7820FFF7D7FEFFF780
S315000005689DFE0020FFF7D2FEFFF798FE3046134E99
S31500000578FFF7CCFEFFF792FEFFF76CFE09F10703C3
S31500000588EC184E4414F8015FFFF732FE7820FFF7A7
S31500000598BDFEFFF783FE4020FFF7B8FEFFF77EFE9D
S315000005A82846FFF7B3FEFFF779FEFFF753FEB4427E
S315000005B8E8D1BDE8F88F00BFA0510000AF51000098
S315000005C8F8B5154692F9002062B106460F46002492
S315000005D8391901343046C9B2E4B2FFF725FF2A5764
S315000005E8002AF5D1F8BD00BFBBB32DE9F041064698
S315000005F814469846194F5D18A5EB0801B8F1010F86
S31500000608C9B2A8F1020219D00123013A03EB830308
S31500000618501C4FEA4303F8D1B4FBF3F3A7FB03C21C
S31500000628D20802EB8202A3EB420303F13002304602
S3150000063852B2FFF7F9FE08F1FF38DDE7074B3046FF
S31500000648A3FB0423DB0803EB8303A4EB430230324A
S3150000065852B2BDE8F041FFF7E7BE7047CDCCCCCC2F
S3150000066808B54FF47A71C82003F0F0FA012140F278
S315000006780B4001F0FDFC002140F2063001F0F8FCC9
S315000006884FF47A7001F018FDDE4BDF48596802F026
S3150000069899FDFFF7ADFD7820FFF738FEFFF7FEFD61
S315000006A80020FFF733FEFFF7F9FDAE20FFF72EFE19
S315000006B8FFF7F4FDFFF7CEFDFFF79AFD7820FFF769
S315000006C825FEFFF7EBFD0020FFF720FEFFF7E6FD0E
S315000006D8D520FFF71BFEFFF7E1FDFFF7BBFDFFF790
S315000006E887FD7820FFF712FEFFF7D8FD0020FFF7F9
S315000006F80DFEFFF7D3FD8020FFF708FEFFF7CEFDBE
S31500000708FFF7A8FDFFF774FD7820FFF7FFFDFFF759
S31500000718C5FD0020FFF7FAFDFFF7C0FDA820FFF78B
S31500000728F5FDFFF7BBFDFFF795FDFFF761FD7820A7
S31500000738FFF7ECFDFFF7B2FD0020FFF7E7FDFFF737
S31500000748ADFD3F20FFF7E2FDFFF7A8FDFFF782FDAD
S31500000758FFF74EFD7820FFF7D9FDFFF79FFD002034
S31500000768FFF7D4FDFFF79AFDD320FFF7CFFDFFF77C
S3150000077895FDFFF76FFDFFF73BFD7820FFF7C6FDF8
S31500000788FFF78CFD0020FFF7C1FDFFF787FD00206E
S31500000798FFF7BCFDFFF782FDFFF75CFDFFF728FDBD
S315000007A87820FFF7B3FDFFF779FD0020FFF7AEFDD0
S315000007B8FFF774FD4020FFF7A9FDFFF76FFDFFF770
S315000007C849FDFFF715FD7820FFF7A0FDFFF766FD49
S315000007D80020FFF79BFDFFF761FDA120FFF796FDBF
S315000007E8FFF75CFDFFF736FDFFF702FD7820FFF700
S315000007F88DFDFFF753FD0020FFF788FDFFF74EFD3F
S31500000808C820FFF783FDFFF749FDFFF723FDFFF734
S31500000818EFFC7820FFF77AFDFFF740FD0020FFF791
S3150000082875FDFFF73BFDDA20FFF770FDFFF736FD94
S31500000838FFF710FDFFF7DCFC7820FFF767FDFFF7F1
S315000008482DFD0020FFF762FDFFF728FD1220FFF7B8
S315000008585DFDFFF723FDFFF7FDFCFFF7C9FC7820D8
S31500000868FFF754FDFFF71AFD0020FFF74FFDFFF7CE
S3150000087815FD8120FFF74AFDFFF710FDFFF7EAFC9B
S31500000888FFF7B6FC7820FFF741FDFFF707FD0020CC
S31500000898FFF73CFDFFF702FDCF20FFF737FDFFF717
S315000008A8FDFCFFF7D7FCFFF7A3FC7820FFF72EFD2A
S315000008B8FFF7F4FC0020FFF729FDFFF7EFFCD9202E
S315000008C8FFF724FDFFF7EAFCFFF7C4FCFFF790FCEF
S315000008D87820FFF71BFDFFF7E1FC0020FFF716FD68
S315000008E8FFF7DCFCF120FFF711FDFFF7D7FCFFF758
S315000008F8B1FCFFF77DFC7820FFF708FDFFF7CEFC7B
S315000009080020FFF703FDFFF7C9FCDB20FFF7FEFC1D
S31500000918FFF7C4FCFFF79EFCFFF76AFC7820FFF799
S31500000928F5FCFFF7BBFC0020FFF7F0FCFFF7B6FC71
S315000009383020FFF7EBFCFFF7B1FCFFF78BFCFFF766
S3150000094857FC7820FFF7E2FCFFF7A8FC0020FFF72A
S31500000958DDFCFFF7A3FCA420FFF7D8FCFFF79EFCFD
S31500000968FFF778FCFFF744FC7820FFF7CFFCFFF78A
S3150000097895FC0020FFF7CAFCFFF790FCA620FFF7BE
S31500000988C5FCFFF78BFCFFF765FCFFF731FC782009
S31500000998FFF7BCFCFFF782FC0020FFF7B7FCFFF768
S315000009A87DFC8D20FFF7B2FCFFF778FCFFF752FCC1
S315000009B8FFF71EFC7820FFF7A9FCFFF76FFC002065
S315000009C8FFF7A4FCFFF76AFC1420FFF79FFCFFF76C
S315000009D865FCFFF73FFCFFF70BFC7820FFF796FC5A
S315000009E8FFF75CFC0020FFF791FCFFF757FCAF20F0
S315000009F8FFF78CFCFFF752FCFFF72CFCBDE808401C
S31500000A08FFF7B8BCCC590000E40C00202DE9F041F2
S31500000A180446D0E902854068A8EB050797422844B2
S31500000A28154408D80E463A46A5EB080503F050FFCC
S31500000A382A466068F11903F04BFFBFF35F8FE56044
S31500000A48BDE8F0812DE9F8434FF0000906468846CF
S31500000A581746D0E902243369151B9C4203F1FF317E
S31500000A6825BF03F1FF339B180B1B1B1BBD4228BF79
S31500000A783D469D4228BF1D46706841462A46204489
S31500000A8803F026FFB2682C44A24208BF0024A944FA
S31500000A98A8447F1BBFF35F8FF460002FDBD1484665
S31500000AA8BDE8F883F8B5164CA8220021204603F0C5
S31500000AB8F5FE4FF48066002303211020114A124FD9
S31500000AC8124D21616161A261E7612662A3626362D8
S31500000AD8E36222666566A0662367E3666367BFF31B
S31500000AE85F8F0B4B9C46A3F11000ACEB030213F986
S31500000AF8011D8342A154F8D1BFF35F8FF8BD00BF33
S31500000B084C090020905700004C0500203C050020A9
S31500000B18B859000038B5214B00EB400403EBC40E6E
S31500000B28DEF82C40013000EB4000012C8C461546BF
S31500000B3803EBC00015D0022C0FD034BBDEF82830EA
S31500000B48DEF8242093429CBFDEF820105B18013B98
S31500000B589A1A95421CD9204638BDBDE83840FFF799
S31500000B6871BFDEF82830DEF82440A3429CBFDEF8C9
S31500000B7820105B18013B1C1B944228BF1446614693
S31500000B882246FFF743FF204638BD0024204638BDDD
S31500000B982A466146FFF73AFF2C46DCE74C09002057
S31500000BA8F8B50B4B04461B780D46532B164601D059
S31500000BB8FFF778FFEFF311874FF0200181F31188D3
S31500000BC8324629462046FFF7A5FF87F31188F8BD68
S31500000BD84C090020FFF766BF10B50446D0E901327C
S31500000BE8501C984207D8236899540246E1686368FE
S31500000BF80131C4E902019A4200D010BD216820697A
S31500000C08FFF7CEFFA368984215BF4FF0FF330023C6
S31500000C18E360A36010BD00BF2DE9F84F91420F466F
S31500000C28DDE90A94154683461E4668D30B464FF0FF
S31500000C380108B3FBF5F39D4208F10108F9D9B0455F
S31500000C4838BFB04614F0010A02D1B9F1000F3DD100
S31500000C58DBF80C30002B29DB012402E005FB04F449
S31500000C68013E012EFAD8B7FBF4F39D4205D805FBE1
S31500000C7804F4B7FBF4F39D42F9D9224E06E0AC42E0
S31500000C88B4FBF5F30CD31C46B7FBF3F3F156584601
S31500000C9804FB1377FFF7A0FFDBF80C30002BEEDA26
S31500000CA8BAF1000F02D0B9F1000F09D1BDE8F88FEB
S31500000CB820215846FFF790FFDBF80C30002BF5DBB8
S31500000CC8C14509F1FF39F3D8BDE8F88FA30711D458
S31500000CD820240CE021465846FFF77EFFDBF80C304F
S31500000CE809F1FF39002BE1DBB9F1000FB4D0C84593
S31500000CF8F0D3ADE7002E0CBF30242024F7E74FF0E1
S31500000D0801089CE7BC5900002DE9F04F4FF0000898
S31500000D1893464027814642469FB00C4603900EA94B
S31500000D2814F9013B6BB1252B28D0551CAF4213D3C0
S31500000D388B5408F1010812D014F9013B2A46002BFE
S31500000D48F1D1B8F1000F03D0002A40F02682904472
S31500000D5840461FB0BDE8F08FBA42E1D13D462A466B
S31500000D6803980291FFF71CFFA842029900F0D6806B
S31500000D784FF0FF3840461FB0BDE8F08F00262346E7
S31500000D8813F9010BA0F123050D2D08D8DFE805F0AE
S31500000D98880707070707070784078C070780A0F156
S31500000DA83005EDB2092D4FF0000501D910E00133E9
S31500000DB805EB850500EB450593F900001C46A0F1F7
S31500000DC8300C5FFA8CFCBCF1090FA5F13005EED9A1
S31500000DD82E286DD000239A4694F90000029320F03D
S31500000DE8040CBCF1680F04F1010478D0252800F042
S31500000DF8828058385FFA80FCBCF1200F90D82028F2
S31500000E088ED80FF2080C5CF820F000BF630F0000C4
S31500000E18290D0000290D0000290D0000290D0000EC
S31500000E28290D0000290D0000290D0000290D0000DC
S31500000E38290D0000290D00009F0F00005D1000001D
S31500000E48290D0000290D0000290D0000290D0000BC
S31500000E58290D0000290D0000290D0000290D0000AC
S31500000E68290D0000290D0000290D0000D50F0000EE
S31500000E78290D0000290D000033110000290D00007E
S31500000E881D110000290D0000290D0000630F000048
S31500000E981C4646F0020672E71C4646F004066EE754
S31500000EA81C4646F008066AE71C4646F0010666E751
S31500000EB894F901002A2833D1DBF800300234181DD2
S31500000EC8CBF8000094F900001B6820F0040CBCF174
S31500000ED8680F4FF0010A029304F1010486D1029BC0
S31500000EE814F9010B20F0040CBCF1680FF8D0252882
S31500000EF802937FF47EAF531C9F4203D388541A464D
S31500000F0808F1010897427FF40BAF3A46039802911D
S31500000F18FFF746FE874202997FF42AAF0022FFE6D2
S31500000F28A0F13003DBB2092B04F101044FF00003F2
S31500000F3800F2AF8103EB830300EB4300A0F130031B
S31500000F4814F9010FA0F1300C5FFA8CFCBCF1090F03
S31500000F58F0D94FF0010A029341E7CDE90A28102299
S31500000F68039BCDE908170C93DBF80010029B081DBC
S31500000F78CBF800000968CDE9005608A8FFF74CFE33
S31500000F88DDE90817DDE90A280C9B0393B8F1000F81
S31500000F98BFF6C6AEDCE6DBF80000531C051DBB42F7
S31500000FA8CBF8005004D8006808F1010888541A469E
S31500000FB8BA427FF4B5AE039804920291FFF7F0FDAA
S31500000FC8049A029982427FF4D3AEA7E7DBF8003091
S31500000FD8181DCBF80000D3F800A0BAF10F0F03D9FB
S31500000FE853461B090F2BFCD80125082301E0013BBA
S31500000FF82D01012BFBD1BAFBF5F30F2B04D92D01DB
S31500001008BAFBF5F30F2BFAD80294A54E0C4607E067
S315000010180F2D4FEA151340F202811D46BAFBF3F372
S31500001028501C8742D44605FB13AA07D3BCFBF5FC24
S3150000103816F80C3008F10108A35402469742E7D186
S315000010483A4621460398FFF7ABFDB8427FF490AEC7
S315000010580022DDE7DBF800004FF0010E00F1040C7A
S31500001068CBF800C000680346049080EAE070A0EB65
S31500001078E37009280EDDDFF830A2029B05960646C6
S31500001088AAFB00C0632E0EF1010E4FEAD000F6DC73
S31500001098059E029302987346864538BF0346059314
S315000010A8002D00F0A680049B06F00200002B7BDBD7
S315000010B8730700F1B780002800F0EE80029B002B32
S315000010C840F0EA8006F00300022817D13B464FF0AD
S315000010D8300A2746059C501CAC420DD2834205F1C6
S315000010E8FF3504D301F802A0024608F1010893422D
S315000010F800F0C280002DEDD13C461F46039BCDE98A
S315000011080817CDE90A280C930A22CDE90056029B56
S31500001118049932E7039BCDE90817CDE90A280C9311
S315000011280A22029BDBF8001021E7DBF80000051D08
S31500001138CBF800500568002D6DD0029B1046013390
S31500001148EE185B46A34634462E4616F9012B82B1A5
S31500001158BAF1000F01D0A6420BD0451CAF420CD302
S315000011680A5408F101080BD016F9012B2846002A63
S31500001178EED15C4602469B4608E78742E5D13D46E6
S315000011882A46039804930291FFF70AFDA84202999A
S31500001198049B7FF4EDAD0020D7E748460EA90292DE
S315000011A8FFF7FEFC029AD2E5013D002856D1F0076A
S315000011B87CD4002D55D006964FF0200A3E461046A0
S315000011C80F460794059CAC4200F1010C0CD266450B
S315000011D805F1FF3504D307F800A0604608F10108B9
S315000011E8864231D0002DEED102463946079C374655
S315000011F8069E049B002B34DB700719D406F0030007
S3150000120802287FF47BAF029B002B7FF477AF002D7B
S315000012183FF474AF5AE74FF0000A224D8DE7214696
S31500001228029CB3E6013D08B1029B0BB1F3076BD5EF
S31500001238501C874255D34FF02B0C08F1010801F8D2
S3150000124802C05BD00246D9E7324639460398FFF713
S31500001258A7FCB0427FF48CAD0020C3E7029B002BAD
S31500001268A5D1049B924601325B429742049325D24C
S3150000127857452BD05246C1E71A460398CDE90613BF
S31500001288FFF78EFC079B069998427FF471AD002202
S3150000129830E79A460293A2E5F3078CD52EE700BFFE
S315000012A8BC5900009C570000CDCCCCCC049B501CEC
S315000012B85B428742049323D3924602462D209742E7
S315000012C808F1010801F80A0098D1BA46524603986F
S315000012D80691FFF765FC504506997FF449AD002253
S315000012E88CE797428AD10398CDE90612FFF758FC96
S315000012F8079A069990427FF43BADF0E73A46F2E743
S31500001308BA427FF4FBAEE0E7002D7FF454AF8FE7D7
S315000013180EB400B582B003AB53F8041B01AA0193BF
S31500001328FFF7F2FC02B05DF804EB03B0704700BFAC
S3150000133808B50121032000F09BFE0121042000F0DE
S3150000134897FE002000F0B4FE0021042000F090FE75
S31500001358002000F0ADFEBDE808400021032000F0A3
S3150000136887BE00BF08B50021032000F081FE0021DA
S31500001378042000F07DFE002000F09AFE01210320E3
S3150000138800F076FE002000F093FE0420012100F014
S315000013986FFEBDE80840002000F08ABE70B5002147
S315000013A80646032000F064FE002000F081FE0121BD
S315000013B8042000F05DFE08250024002000F078FED9
S315000013C80021032000F054FE002000F071FE0121E8
S315000013D8032000F04DFE002000F06AFE042000F015
S315000013E855FE6400E4B2691E08B10134E4B211F096
S315000013F8FF05E2D12946032000F03AFE284600F010
S3150000140857FE0320294600F033FE284600F050FE1A
S315000014189EB12946042000F02BFE0121032000F08E
S3150000142827FE002000F044FE0021032000F020FEE5
S31500001438002000F03DFE204670BD0121042000F08A
S3150000144817FEEAE738B5082405462B064CBF0121E6
S315000014580021042000F00CFE002000F029FE0121E6
S31500001468032000F005FE002000F022FE00210320E4
S3150000147800F0FEFD611E6D0011F0FF04EDB2E4D12F
S315000014882146032000F0F4FD204600F011FE01215C
S31500001498032000F0EDFD204600F00AFE042000F0CF
S315000014A8F5FD40B92146032000F0E2FD2046BDE8DF
S315000014B8384000F0FDBD0121BDE83840032000F0AA
S315000014C8D7BD00BFF8B5044616460D46FFF730FFF0
S315000014D85220FFF7B7FF0020FFF7B4FFE0B2FFF78F
S315000014E8B1FFFFF725FF5320FFF7ACFF771E4FF03C
S315000014F8000418BF0127013DA74214BF01200020A0
S31500001508FFF74CFF0134B44205F8010FF4D1BDE8EA
S31500001518F840FFF727BF00BF70B50B26374D82B0DE
S31500001528FFF706FF5220FFF78DFF0020FFF78AFF1F
S315000015380120FFF787FF324C14F8010BFFF782FFF3
S31500001548AC42F9D1FFF70EFFFFF7F2FE5220FFF784
S3150000155879FF0020FFF776FF5E20FFF773FF002074
S31500001568FFF770FF6520FFF76DFFFFF7FBFEFFF73C
S31500001578DFFE5220FFF766FF0020FFF763FF6120BA
S31500001588FFF760FF0020FFF75DFF8720FFF75AFF90
S31500001598FFF7E8FE012230200DF10701FFF792FF61
S315000015A8012231200DF107019DF80740FFF78AFF58
S315000015B8012000F07DFD9DF807202409731E544084
S315000015C813F0FF0604F0010417D0642000F070FD44
S315000015D8002CA5D0FFF7ACFE5220FFF733FF002002
S315000015E8FFF730FF8620FFF72DFF2120FFF72AFFA0
S315000015F802B0BDE87040FFF7B5BEFEE787000020E1
S315000016080000002030B583B00446FFF791FE522053
S31500001618FFF718FF0020FFF715FF8620FFF712FFD8
S315000016280120FFF70FFFFFF79DFE012289200DF12C
S315000016380301FFF747FF9DF80330892B05D00223E6
S315000016484FF4AF60237003B030BD00259620022208
S3150000165801A9ADF80450FFF735FFBDF8040040BAFC
S3150000166880B2B0F5AF6F05D901234FF4AF60237090
S3150000167803B030BD2B46237003B030BD10B582B021
S3150000168800F046FF00B1FEE700F052FD00B1FEE7AC
S3150000169800F060FD00B1FEE7019000F011FD00F0DA
S315000016A8DDFC01994FF4806000F0E2FC012140F274
S315000016B8051000F0DDFCFFF72FFF012000F0F8FC15
S315000016C800F0AAFF0446FEF7CBFF0121104A0846A0
S315000016D8FEF776FF012102200E4AFEF771FF01236D
S315000016E8082122460220FEF77FFFC82000F0FCFCF6
S315000016F8094800F0F3FE094800F086FE4FF4FA6048
S3150000170800F0D6FC02B0BDE81040FEF733BE00BFBD
S31500001718A4570000B0570000B8570000D057000083
S31500001728012108B50846244AFEF74AFF234A04233E
S31500001738072101201268FEF757FF01210220204ADF
S31500001748FEF73EFF1F4A0423052102201288FEF7F2
S315000017584BFF092102201C4AFEF732FF0121032014
S315000017681A4AFEF72DFF1A4B1B781BB3194A052197
S315000017780320FEF725FF184A0123092103201278C2
S31500001788FEF732FF01210420144AFEF719FF144A16
S315000017980223D2ED067AFDEEE77A0621042017EE3B
S315000017A8902AFEF721FFBDE80840082104200D4ACB
S315000017B8FEF706BF0C4ADAE7F0570000040A0020D5
S315000017C8F85700008C00002000580000045800005C
S315000017D8000A0020E0570000010A00200C5800000B
S315000017E8280A002014580000E857000000000000EE
S315000017F82DE9F0415648FFF705FF564B5649A3FB1E
S3150000180800340A68554B042A4FEAD4046BDDD3E941
S3150000181801071D69D3F80C80C3E90007C3E903541F
S31500001828C3F808808C2D03D11D2CDCBF2546DC604F
S3150000183802F00CFD3EA3D3E9002302F071FD024637
S31500001848384616460F4602F001FD3BA3D3E90023AE
S3150000185802F066FD02460B463046394602F0AAFB00
S31500001868064640460F4602F0F1FC35A3D3E90023AD
S3150000187802F056FD02460B463046394602F09AFB00
S31500001888064628460F4602F0E1FC2FA3D3E90023BB
S3150000189802F046FD0B4602463946304602F08AFB00
S315000018A8024620460D46144602F0D0FC26A3D3E98C
S315000018B8002302F035FD02460B462046294602F073
S315000018C879FB02F03FFF264C80B2264B1828227877
S315000018D8188002D902BBBDE8F0817AB1BDE8F041B3
S315000018E8142000F001BC43F82240501C0860D3F8CD
S315000018F80880D3E90354D3E9000793E701231A487C
S31500001908237000F0EBFD4FF4FA7000F0EDFB23783E
S31500001918002BE3D1BDE8F08100231448237000F0C2
S31500001928DDFD4FF4FA7000F0DFFBF0E7AFF300805F
S315000019389A9999999999E93F9A9999999999B93F4B
S315000019489A9999999999A93F9A9999999999993F9B
S31500001958240A0020CDCCCCCCF8090020100A00209F
S31500001968080A00208C00002018580000245800009F
S3150000197838B5642000F0B8FB142000F099FB642009
S3150000198800F0B2FB224800F0A9FDFEF7F3FC0121A6
S31500001998204A0846FEF714FE40F2DC5000F088FBA9
S315000019A800F09CFB03461C4D1C482B6000F046FDCE
S315000019B81B4C23789BB100231A491B48237002F05D
S315000019C87DFFF0B11949184802F078FF0028F0D1D8
S315000019D8174800F083FDBDE83840FEF7CBBC00F0A1
S315000019E87DFB49F640432A68801A9842E1D90B489C
S315000019F800F024FD0F4800F071FDBDE83840FEF701
S31500001A08B9BC0D4800F06AFDBDE83840FEF7B2BC27
S31500001A183058000044580000F409002050580000CF
S31500001A28600C002058580000640C00207058000014
S31500001A387C580000845800006458000038B500F04F
S31500001A483BFC274C274D207000F03EFC247828707C
S31500001A58012C04D0022C3FD0012814D038BD224ACC
S31500001A68137883F0010313708BBB204800F036FD12
S31500001A7821464FF4806000F0FBFA142000F034FB96
S31500001A8828780128EAD11A4800F000FD40F2A4603F
S31500001A9800F00EFB174B184AD3ED067AFDEEE77AEF
S31500001AA817EE903A82FB0312D917C1EBA20101EB9C
S31500001AB88102A3EB4202114800F0E8FC4FF496605D
S31500001AC800F0F6FABDE838400D4800F007BD0D48AD
S31500001AD800F004FD0021CCE7FFF74AFF2878BBE7B2
S31500001AE8450A0020440A0020000A0020A0580000E9
S31500001AF8B0580000280A002067666666BC580000D1
S31500001B08C4580000905800002DE9F0414FF4487081
S31500001B1800F0EAFA344800F0E1FC40F6AC5000F078
S31500001B28C7FAFEF727FC0121304A0846FEF748FDAA
S31500001B3802232F4F012118463A68FEF755FD00F09B
S31500001B48CDFA4FF00008044600F0B6FB294D2A4EA0
S31500001B58287000F0B9FB85F8008086F8008006E05A
S31500001B682B783278134324D13B68002B34DD00F000
S31500001B78A3FB287000F0A8FB307000F0AFFA001B3A
S31500001B8863EB0303B0F57A7F73F10003E8D302230E
S31500001B983A681846013A01213A60FEF725FD1420F5
S31500001BA800F0A2FA00F09AFA2B783278044613432A
S31500001BB8DAD00A2364203B6000F096FA00230F4827
S31500001BC82B70337000F08AFCFEF7D4FBBDE8F041B9
S31500001BD84FF4487000F06CBA0A233B60FEF7CAFB64
S31500001BE8BDE8F041FFF7C4BECC580000F05800002D
S31500001BF888000020450A0020440A0020FC580000FE
S31500001C0838B5072000F0C0FA194A1A4BC0F58050BB
S31500001C18147880B2186054B940F6FB03984207DD81
S31500001C2840F62823984202DD134D2B7893B938BD28
S31500001C38114C2578002DFAD1104800F04FFCC82029
S31500001C4800F052FA29464FF4806000F011FA012399
S31500001C58237038BD0A4800F041FCC82000F044FA59
S31500001C6801214FF4806000F003FA2C7038BD00BFE4
S31500001C78000A0020040A0020010A00200859000072
S31500001C882059000008B5194B1A78AAB1002218493C
S31500001C9818481A7002F012FEA0B11749154802F04A
S31500001CA80DFED0B11549134802F008FE88B1144953
S31500001CB8104802F003FEA0B1124B1A780AB10022AE
S31500001CC81A7008BD104800F0B9FB104800F006FC71
S31500001CD8F2E70F4800F002FCEEE70E4800F0FEFBC4
S31500001CE8EAE70D4800F0FAFBE6E700BF600C0020C3
S31500001CF838590000640C0020545900006C59000043
S31500001D08885900005F0A0020405900004859000021
S31500001D187C590000605900009459000008B5FFF787
S31500001D28ADFC9FED188A184D184C05E0FFF7F8FC36
S31500001D38FFF784FEFFF7A6FF00F0D0F92368C01A64
S31500001D48B0F5967FF2D300F0C9F92060FFF758FF87
S31500001D58FFF74EFD0E4800F01FFD0E4BF3EC017A1F
S31500001D68F5EEC07AF1EE10FA48BFF1EE677AF4EEB6
S31500001D78C87AF1EE10FA02DCAB42EFD1D6E7FFF7EC
S31500001D88C3FED3E70000DC42400A0020FC0900201D
S31500001D98280A0020340A0020022800D07047024989
S31500001DA8024801F00FBA00BF385B0000E40C0020BF
S31500001DB808B50121042000F05BF90121032000F099
S31500001DC857F9012000F078F90021042000F050F9B5
S31500001DD8012000F071F9BDE808400021032000F059
S31500001DE847B900BF08B50021032000F041F90021DA
S31500001DF8042000F03DF9012000F05EF901210320DE
S31500001E0800F036F9012000F057F90021032000F010
S31500001E182FF9BDE808400121042000F029B900BFC8
S31500001E2808B50021032000F023F90121042000F061
S31500001E381FF9012000F040F90121032000F018F9EC
S31500001E48012000F039F9BDE808400021032000F020
S31500001E580FB900BF38B50121032000F009F90120A8
S31500001E6800F02AF9652405E0013C0120A4B200F03F
S31500001E7823F95CB1042000F009F905460028F3D1DE
S31500001E880146032000F0F4F8284638BD012521460E
S31500001E98042000F0EDF80121032000F0E9F8012004
S31500001EA800F00AF90121042000F0E2F8012000F010
S31500001EB803F9284638BD00BF38B50021044603207B
S31500001EC800F0D6F8082523064CBF0121002104207E
S31500001ED800F0CEF80120844000F0EEF8012103203E
S31500001EE800F0C6F8012000F0E7F80021032000F012
S31500001EF8BFF8012000F0E0F86B1E13F0FF05E4B20E
S31500001F08E1D138BD70B50825002406460021032016
S31500001F1800F0AEF8012000F0CFF80121032000F010
S31500001F28A7F8042000F0B2F8034601206400E4B2E2
S31500001F38221803B1D4B200F0BFF86B1E13F0FF05E8
S31500001F48E4D11EB9FFF76CFF204670BDFFF74AFFC4
S31500001F58204670BDF8B506460F4614461D46FFF7DF
S31500001F6827FF700000F0FE00FFF7A6FFFFF772FFDD
S31500001F7810B101263046F8BD3846FFF79DFFFFF73A
S31500001F8869FF06460028F4D1254407E014F8010B3A
S31500001F98FFF792FFFFF75EFF0028EAD1AC42F5D1C2
S31500001FA80021042000F064F80121032000F060F805
S31500001FB8012000F081F80121042000F059F80120E1
S31500001FC800F07AF83046F8BDF8B5044664000E46C7
S31500001FD815461F46FFF7ECFE04F0FE00FFF76CFF00
S31500001FE8FFF738FF10B101263046F8BD3046FFF737
S31500001FF863FFFFF72FFF0028F5D1FFF7D9FE44F05E
S315000020080100C0B2FFF758FFFFF724FF0646002875
S31500002018E9D17C1EA4B267B14FF6FF77201E18BF20
S315000020280120FFF76FFF013CA4B2BC4205F8010B83
S31500002038F4D10021042000F01BF80121032000F050
S3150000204817F8012000F038F80121042000F010F8F4
S31500002058012000F031F83046F8BD00BF024B0348B6
S31500002068596801F0AFB800BFCC590000E40C002055
S315000020780A46A2F101020346B2FA82F2194602485A
S31500002088520900F061BF00BFE40C002000B583B020
S3150000209801460DF10702054800F02CFF9DF80700E0
S315000020A8003818BF012003B05DF804FBE40C0020DB
S315000020B84FF47A7101F0CABD012101F0C7BD00BF16
S315000020C808B50449044801F0D1F9BDE808400248BA
S315000020D801F078B93C5A00003C0D0020014B186805
S315000020E8704700BF540A0020012838B500EBD075A8
S315000020F81ADD00246D10012240F205110B4800F08C
S3150000210823FF4FF47A71012001F0A0FD002240F26E
S315000021180511064800F018FF01344FF47A710120C2
S3150000212801F094FDAC42E6DB38BD00BFE40C0020AC
S3150000213810B50549054801F0D3FB04460449034890
S3150000214801F0A0FA204610BDAC5A00005C0D002034
S31500002158985A000008B50849084801F097F8074852
S3150000216801F0D4F80649074801F090F8BDE80840A0
S31500002178044801F0CBB800BFD8590000EC0C002089
S31500002188F0590000FC0C002010B5044682B008483F
S3150000219801F06AFA01211E2001F058FD21460DF1D1
S315000021A80602034801F066FABDF8060002B010BD43
S315000021B85C0D002003791BB9024A136801331360CA
S315000021C8704700BF540A00204368072B00D07047A9
S315000021D800B583B0012116480DF1070200F08AFE0A
S315000021E89DF8073033B9134A134B12681A6003B0C7
S315000021F85DF804FB01210E480DF1070200F07AFE96
S315000022089DF80730002BF2D00A4B0B4A1B68126860
S315000022189B1AB3F5167F03D833B9084A1370E6E755
S315000022280222064B1A70E2E70122044B1A70DEE717
S31500002238E40C0020540A00204C0A0020510A002011
S315000022484368082B00D0704700B583B002211648B2
S315000022580DF1070200F04EFE9DF8073033B9134A18
S31500002268134B12681A6003B05DF804FB02210E488E
S315000022780DF1070200F03EFE9DF80730002BF2D064
S315000022880A4B0B4A1B6812689B1AB3F5167F03D8CC
S3150000229833B9084A1370E6E70222064B1A70E2E7DA
S315000022A80122044B1A70DEE7E40C0020540A0020D1
S315000022B8480A0020500A00200022024B18781A709B
S315000022C8704700BF510A00200022024B18781A7086
S315000022D8704700BF500A00200379022B02D1002262
S315000022E8014B1A70704700BF5E0A00200379022B63
S315000022F80DD0042B00D0704710B41B4A81681378A0
S31500002308C8B243B9242821D05DF8044B704700228F
S31500002318164B1A707047012B0FD0022BF4D10A28DE
S31500002328F2D100234FF0010C114912480978124CDA
S31500002338137084F800C04354E6E70D2811D00C4BFF
S315000023480C4C1A78501CA1541870DDE70A4B1B7800
S31500002358002BD9D101230649064C137020700B7047
S31500002368D2E702231370CFE7590A00205C0A00203F
S31500002378580A0020600A00205F0A00200379022B11
S315000023880FD0042B00D070471A4A81681378C8B258
S315000023985BB1012B10B421D0022B11D05DF8044B90
S315000023A870470022144B1A7070474028EBD1134B24
S315000023B81B78002BE7D10121114811700370704773
S315000023C80A28EBD100234FF0010C0D490D48097876
S315000023D80A4C137084F800C04354DFE70D2806D072
S315000023E8074B084C1A78501CA1541870D6E70223DC
S315000023F81370D3E75B0A00205D0A0020600C0020FA
S315000024085A0A0020640C00200FB410B582B004AB41
S3150000241853F8044B0193FFF761FE07490246002073
S31500002428FEF776FF214601AA0020FEF76DFC02B0F2
S31500002438BDE8104004B07047A05900000FB470B54D
S31500002448A2B026AB53F8042B802102A8019302F010
S3150000245817FA9DF908307BB101260A4C02AD012214
S3150000246829460948267000F031FA2378002BFCD15A
S3150000247815F9013F002BF2D122B0BDE8704004B037
S31500002488704700BF5D0A00200C0D00200FB470B520
S31500002498A2B026AB53F8042B802102A8019302F0C0
S315000024A8EFF99DF908307BB101260A4C02AD0122ED
S315000024B829460948267000F009FA2378002BFCD132
S315000024C815F9013F002BF2D122B0BDE8704004B0E7
S315000024D8704700BF5E0A0020800D002090F900308A
S315000024E88BB170B505460126074C012229460748D7
S315000024F8267000F0EBF92378002BFCD115F9013F83
S31500002508002BF2D170BD70475E0A0020800D0020B6
S31500002518F0B589B06C461A4D00260FCD0FC495E864
S315000025280F0084E80F006C46164F174D694617488A
S31500002538CDE9057600F012FA0FCD0FC495E80F0025
S31500002548134F84E80F0069461248CDE9057600F076
S3150000255805FAEC46104C114D0FCCACE80F0094E888
S315000025680F008CE80F0069460D48CDE9055600F0C6
S31500002578F5F90446FEF72EFB204609B0F0BD00BF6C
S31500002588D05A0000E1220000085A0000800D002001
S31500002598852300000C0D0020045B0000F5220000D6
S315000025A8B00D002010B50446042C4FF47A7C38BFD1
S315000025B80424644528BF6446BCFBF4FC82B00CF1D5
S315000025C8FF3C0123192168200DF107028DF807C089
S315000025D8FFF7C0FCB4F5BC7F04D26308612B0DD9A4
S315000025E8022400E0012401231A210DF107026820C4
S315000025F88DF80740FFF7AEFC02B010BD292B06D8B0
S31500002608132B06D80A2B34BF06240524EBE703242C
S31500002618E9E70424E7E700BF70B58026002582B005
S3150000262801236B210DF1070268208DF80760FFF77B
S3150000263891FC0120FFF73CFD01236B210DF10702F8
S3150000264868208DF80750FFF785FC182201231B2107
S315000026588DF8072068200DF10702FFF77BFC0123A0
S315000026681C210DF1070268208DF80750FFF772FC50
S315000026781322012319218DF8072068200DF107027E
S31500002688FFF768FC0422012401231A218DF807208C
S3150000269868200DF10702FFF75DFC382123460DF18E
S315000026A8070268208DF80740FFF754FC6A21234685
S315000026B80DF1070268208DF80750FFF74BFC232120
S315000026C823460DF1070268208DF80750FFF742FCF4
S315000026D8372123460DF1070268208DF80760FFF7BA
S315000026E839FC2346752168200DF10702FFF76CFCBB
S315000026F89DF80760682E02D0284602B070BD2346B2
S315000027080DF107026B2130468DF80740FFF722FCD2
S315000027186C2123460DF1070230468DF80750FFF766
S3150000272819FCC820FFF73EFF204602B070BD00BF67
S3150000273870B582B006460D46144606236A464321FE
S315000027486820FFF741FC58B9BDF80030BDF80220F3
S315000027585BBA3380BDF8043052BA5BBA2A8023804C
S3150000276802B070BD70B582B006460D461446062303
S315000027786A463B216820FFF727FC58B9BDF80030A8
S31500002788BDF802205BBA3380BDF8043052BA5BBA92
S315000027982A80238002B070BD10B584B0044602AA10
S315000027A80DF1060101A8FFF7DDFF0DF10E0203A9E1
S315000027B80DF10A00FFF7BCFF6A4602234121682093
S315000027C8FFF702FCBDF80000C0BA01F03FFD002289
S315000027D8354B01F0CFFE32A3D3E9002301F0EAFB23
S315000027E801F0D0FF9FED317A07EE900A67EE877AFF
S315000027F8FDEEE77ABDF90430DFED2D3A06EE103A24
S31500002808BDF90630DFED2B2A06EE903ABDF9083001
S31500002818DFED295A07EE103ABDF90A30B8EEC77A45
S3150000282804EE103ABDF90C3027EE237A04EE903AFE
S31500002838BDF90E309FED213A05EE103A17EE903AA3
S315000028481BB207EE903AF8EEE77AB8EEC44AF8EE0D
S31500002858E44AB8EEC55A84ED027AB8EEC66A87EE3F
S31500002868A27AF8EEE66A26EE236A66EEA36A77EEA1
S31500002878037AC4EE253A84EEA54AC5EE254A84EDC8
S31500002888006AC4ED016AC4ED033A84ED044AC4ED56
S31500002898054AC4ED067A04B010BD00BFAFF3008048
S315000028A8A4703D0AD7434240004075400000C84224
S315000028B8000080380000AA4300000343713D8441AC
S315000028C808B5FFF72BFA002008BD00BF10B4046A4C
S315000028D8A37803F07B03A3708378046A03F00303E9
S315000028E8D21A0B44C0E90332A37843F08003A370DD
S315000028F88378026A03F00303022B05D00B780020C5
S31500002908D3705DF8044B70470B88002043F47E4370
S31500002918D3815DF8044B7047F0B5846A85B00546E7
S315000029280F4694466E46B4B194E80F008DE80F0042
S31500002938EB6920461B78A760236084F804C0EB6A1D
S31500002948E3606B6A9847AC6A1CB196E80F0084E8A6
S315000029580F0005B0F0BD6C46EAE700BF012203464A
S315000029680878824012F0060F05D0CA6952681278B4
S31500002978120700F1C18100224FF0010C00F580001A
S315000029882DE9F04100F58C500002C3E907101A70D2
S315000029984D6998785D628D696CF30100C3E90A2573
S315000029A8987048789D78B0FA80F04009404200F067
S315000029B8030080EA0C0060F301059D7091F90B5045
S315000029C8CE4C680905F01F0620300CFA06F691F879
S315000029D80AE044F82060BFF34F8FBFF36F8FC848F3
S315000029E805F1C00650F8267062F3104740F82670C5
S315000029F850F82660C34E4FEA0E1E67195FFA8EFE20
S31500002A0887F800E346F8253091F9055091F804E077
S31500002A186F0905F01F0820370CFA08F844F82780D4
S31500002A28BFF34F8FBFF36F8F05F1C00750F82780AC
S31500002A3862F3104840F8278050F827704FEA0E1EB8
S31500002A4867195FFA8EFE87F800E346F8253091F994
S31500002A58075091F806E06F0905F01F0820370CFAB1
S31500002A6808F844F82780BFF34F8FBFF36F8F05F13F
S31500002A78C00750F8278062F3104840F8278050F8BE
S31500002A8827704FEA0E1E67195FFA8EFE87F800E375
S31500002A9846F8253091F9095091F808E06F0905F0D4
S31500002AA81F0820370CFA08F844F82780BFF34F8F21
S31500002AB8BFF36F8F05F1C00750F8278062F31048FF
S31500002AC840F8278050F827004FEA0E10C0B22C4471
S31500002AD884F8000346F82530EFF310868CF3108847
S31500002AE84FF000450C788848E540446824EA050418
S31500002AF84460406886F31088186A8270186A027102
S31500002B08186A4272186A8272186AC272186A42830E
S31500002B1840F2F93208780CFA00FC1CEA020F02D0DF
S31500002B2840201A6AD0740625012240F2F9301C6A40
S31500002B3825770C78A240024240F0CA80CA784878C5
S31500002B488C78D200032842EA041200F0D1800028CB
S31500002B580CBFE220F2201C6AD2B222701A6A002543
S31500002B689071CC69186A227B082A0EBF0A22520085
S31500002B7802F0020242736278A078D201400100F0A6
S31500002B882000D2B20243186A057220781D6A0238FC
S31500002B98012840F2A280D2B2EA7160681A6A847883
S31500002BA854704578147865F301041470C4789474E5
S31500002BB8D479007804F0A30400F05C002043D071B7
S31500002BC80020C3E90300C3E90500DC694C4A94F90F
S31500002BD80540CD6904F1C00152F8216095F800C09E
S31500002BE860F3104642F821600CF0030C52F82110ED
S31500002BF8BFF35F8F4FF0010E6109890004F01F04CF
S31500002C0801F1604101F561410EFA04F4C1F8804111
S31500002C180C60D96991F90B4004F1C00152F82160A2
S31500002C2860F3104642F8216052F82110BFF35F8F17
S31500002C386109890004F01F0401F160410EFA04F4E9
S31500002C4801F56141C1F880410C60D96991F90740E5
S31500002C5804F1C00152F8216060F3104642F8216081
S31500002C6852F82110BFF35F8F6109890004F01F0431
S31500002C7801F160410EFA04F401F56141C1F88041A1
S31500002C880C60D96991F9091001F1C00452F8246061
S31500002C9860F3104642F8246052F82420BFF35F8F91
S31500002CA84A09920001F01F0102F160420EFA01F191
S31500002CB802F56142C2F8801111601A6A4CF0700C74
S31500002CC882F802C06989114A19815A60BDE8F08103
S31500002CD84FF478401A6A908230E7FF2068702078AF
S31500002CE8022808BF42F01002186AD2B2C27167E71A
S31500002CF8F22042F040022EE70320704700E100E090
S31500002D0800600040240E0020004008405549435307
S31500002D18EFF30383103B1E4A5BB203F1C00152F87E
S31500002D28210020F4803042F8210052F82120194A67
S31500002D3852F82300C269036912690AB10BB17047D8
S31500002D4873B90021026A937803F07F0343F0040302
S31500002D589370436AC16013B18022FFF7DDBD7047E7
S31500002D688378026A03F00303022BC1680BD00B7841
S31500002D78D3708278D0E9031302F003029B1A114438
S31500002D88C0E90313DAE70B8843F47E43D381F0E7FF
S31500002D9800600040240E002010B582B0EFF30383D4
S31500002DA8103B1F4A5BB203F1C00152F8210020F420
S31500002DB8803042F8210052F821201A4A52F823405E
S31500002DC8A278236A02F0030102290CBF198A5979ED
S31500002DD8A3690CBFC1F30801C9B2019143B9636A7B
S31500002DE8B3B10422204602B0BDE81040FFF794BDF7
S31500002DF802F0030201A9606901F06AFDD4E9052120
S31500002E08A37803F003031A44C91AC4E9052109B1D2
S31500002E1802B010BD636A002BFAD00122E2E700BFB8
S31500002E2800600040240E002010B5EFF303830E4A1D
S31500002E38103B5CB252F82400026A937803F07B03D5
S31500002E489370436A1BB102220021FFF765FD074A0A
S31500002E5804F1C00352F8231021F4803142F82310FC
S31500002E6852F8233010BD00BF240E00200060004039
S31500002E7810B5EFF303831A4A103B5CB252F82400EC
S31500002E888278036A02F00302022A0CBF198A59796A
S31500002E9893F804C00CBFC1F30801C9B21CF0100FA7
S31500002EA80CF0380206D093F81CC01CF0010F08BFBE
S31500002EB842F0400293F804C00CF0C70C83F804C033
S31500002EC8436A0BB1FFF728FD064A04F1C00352F81E
S31500002ED8231021F4803142F8231052F8233010BD14
S31500002EE8240E0020006000400022034610461A60A7
S31500002EF8704700BF10B40B0A064C1B0153FA81F148
S31500002F0854F821300020C3F340035DF8044B1370D6
S31500002F18704700BF00080840090A490101F18041CD
S31500002F2801F500214B68002013807047090A490102
S31500002F3823EA020C01F180411A4001F5002142EA18
S31500002F480C4200208A6070470120CBB2984080B2BC
S31500002F5802B900040B0A5B0103F1804303F5002361
S31500002F6898600020704700BF10B4090A490101F1B2
S31500002F78804101F500210C6802EA030C4CEA040CB6
S31500002F8862EA030202EA0C020A6000205DF8044BBA
S31500002F98704700BF090A490101F1804101F5002186
S31500002FA84B680020C3F30F4313807047012310B406
S31500002FB84FEA112C4FEA4C1C0CF1804C0CF5002CF6
S31500002FC8DCF80440C9B28B4099B203EA14435B1A91
S31500002FD8B3FA83F35B0900205DF8044B137070475E
S31500002FE8090A490123EA020C01F180411A4001F558
S31500002FF8002142EA0C420020CA607047012010B442
S315000030080B0A5B0103F1804303F50023C9B2DC68B0
S3150000301800FA01F1012A4FEA01400DBF84438C43AF
S3150000302804430C43DC6000205DF8044B704700BF86
S315000030382DE9F84F0388DBB182464FF0000B4FF0BD
S315000030480109DFF8D0800024304D4FEACB07DAF8C3
S31500003058043035F8022BD919898891420AD00134EF
S31500003068032CF4D1BAF800300BF1010B5B45EAD812
S31500003078BDE8F88FDB5909FA04F603F0B853B3F143
S31500003088807FF6B298F8BB3413D0334231D1204A48
S3150000309804F1200612F81630DB09E0D012F81630D3
S315000030A8012123F08003C82002F8163000F0CEFD77
S315000030B8D5E7334211D0164A04F1200112F811302F
S315000030C8DB09CCD112F81130C82043F0800302F88E
S315000030D81130012100F0BAFDC1E7012000F096FE8B
S315000030E898F8BB340120334388F8BB3400F05EFE01
S315000030F8E1E7012000F08AFE98F8BB34012023EAB4
S31500003108060388F8BB3400F051FEC0E70C5C0000EB
S315000031180030084000E00140F8B50646FFF788FF92
S31500003128EFF31082012383F31088234F3B681BB902
S315000031382249CB704023CB703B6801333B6082F356
S315000031481088338823B300211D4D08E01B01134462
S3150000315845F82340328801318BB29A4218D97368F0
S3150000316853F8314003EBC1029288E0034FEA122379
S31500003178D2B2EBD502EB031055F820E024F4803CDC
S315000031882EF4803E45F820E01B0145F820C0DEE716
S31500003198EFF31082012383F310883B6813B13B6871
S315000031A8013B3B603B681BB980200449CB70C87063
S315000031B882F31088F8BD00BF200E0020000D0840DD
S315000031C80008084008B5034B03600846FFF7A4FF4C
S315000031D8002008BD54524F5008B50846FFF79CFF1B
S315000031E8002008BD70B5012686B001AB03A80C46C1
S315000031F815460493ADF80C60ADF808100192FFF778
S3150000320817FFEFF3108286F310881D490B681BB968
S3150000321840261C48C370C6700B6801330B6082F3E6
S315000032281088EA034FEA1423E4B219D41B01164A9C
S31500003238234442F82350EFF31082012383F31088C6
S315000032480B6813B10B68013B0B600B681BB9802038
S315000032580C49CB70C87082F31088002006B070BD88
S31500003268094A04EB031052F820601B0126F4803645
S3150000327842F8206025F4803642F82060D7E700BF80
S31500003288200E0020000D08400008084070B40025F4
S31500003298034691F902201A4C0271920002F180420B
S315000032A802F5C042D2F80063C2F800538A68826009
S315000032B8CA68C2600878587125540D79CA7842EAF6
S315000032C805124D7942EAC512D2B2225493F9042066
S315000032D8C03244F8226093F9040000280BDB4A78D0
S315000032E8084C120100F16041D2B201F5614181F842
S315000032F8002344F82030044A00201A6070BC704746
S3150000330800600040240E00205543490090F904202F
S315000033180E4B02F1C00153F8210020F4803043F827
S31500003328210053F82130BFF35F8F012153099B0019
S3150000333802F01F0203F1604303F5614301FA02F24A
S31500003348C3F880211A600020704700BF0060004063
S3150000335810B582B0EFF30384184B103C64B253F8EF
S315000033682410174A4879135C03F00303032B12D081
S31500003378C03452F8243023F4803342F8243052F80B
S3150000338824308B682BB14879CA68CDE90020684695
S31500003398984702B010BD8B6823B1CA68CDE90020F2
S315000033A868469847064BC03453F8242022F48032E6
S315000033B843F8242053F8243002B010BD240E002010
S315000033C80060004003460020D3E90223536070479B
S315000033D870B5836984B004468C46164601AD9BB128
S315000033E893E8070085E8070083F804C09E60E26951
S315000033F818461A6063699847A3691BB195E80700E0
S3150000340883E8070004B070BD2B46EDE7002800DA14
S31500003418704710B400F160430901124CC9B203F5B4
S31500003428614383F80013104B44F8202000F1C002D2
S3150000343853F8221021F4803143F8221053F8223031
S31500003448BFF35F8F012243099B0000F01F0003F1C1
S31500003458604303F561438240C3F880211A605DF832
S31500003468044B7047240E0020006000404FF0010C0A
S31500003478F8B50A7C00260CFA02F2C26002F00F02C6
S31500003488B2FA82F25209416002740A7C4C4D0B462C
S3150000349815442D0285604A69044642618A69C0E975
S315000034A80662CD69EFF310878CF310884FF0004061
S315000034B8097C444AC840116921EA00011161126970
S315000034C887F310884FF42541A2681160A268D66276
S315000034D8A268D663A26896641878002603284FF077
S315000034E80040197AA7684FEAC15108BF41F48031F4
S315000034F85A68F962A168013A0861A1684861A16839
S315000035088861A1684E62A1688E62A168A869C861CF
S31500003518A168E8690862A1688A66A1684A6662685D
S31500003528A86BD26992F83010CE0705D5916AA668BD
S315000035380139F16492F83010890703D5D26AA16877
S31500003548013A0A650022A1688A63A168C1F8882041
S31500003558AA6B3AB995F8212095F82010520742EA45
S315000035684132104395F830200326002A14BF4FF441
S31500003578A0074FF4AA070121A2681764A26850633E
S31500003588A2681663A2681163D4E90221D160597C46
S3150000359893F912002246FFF739FF224695F82210C2
S315000035A895F92400FFF732FF95F92500224695F88C
S315000035B82310FFF72BFF044B00202360F8BD00BF44
S315000035C8901640000040084054504700F0B5EFF30D
S315000035D80382103A214C51B201F1C00C54F82C3038
S315000035E823F4803344F82C308B0003F1804303F531
S315000035F8C043D3F800031A4850F82100456895F8E7
S3150000360800E0BEF1010F08D043692BB1BDE8F040D8
S3150000361800221146FFF7DCBEF0BD0025D0E902679F
S31500003628B760866802F0FF02B5648668F564866846
S31500003638356554F82C6065F3104644F82C60D3F8C9
S315000036480033BFF35F8F074C4B0902F01F020EFAD7
S3150000365802F2603344F82320D6E700BF006000403A
S31500003668240E002000E100E003461A689B8A002029
S315000036781380704703461B68103133F81130002059
S31500003688138070472DE9F047D1E9018E764B41F258
S31500003698360C1A68034608685F681C681FFA80F9C2
S315000036A87F69A4F804901C681FFA88F9A4F8149096
S315000036B81C681FFA8EF9A4F808901C6820F0C04010
S315000036C84FEA1049A4F806901C6828F0C0484FEA4B
S315000036D81848A4F816801C682EF0C04E4FEA1E4EF5
S315000036E8624EA4F80AE0366A614DC6F3026802FA29
S315000036F808F2C6F3021E22FA0EF2A5FB025292093E
S315000037080CFB02F2DFF878A1AAFB0242D1E90045D8
S31500003718920C0132072A45EA040538BF072215F03C
S31500003728005420D0EFF3108C012484F31088514CF8
S31500003738E66826F48006E660E4688CF3108890262E
S315000037484D4C26701C68D6B284F8DE600C688E680C
S3150000375814F0005F0CBF4FF480644FF48074B60019
S3150000376848BF44F001046E000FD51D68D2B285F833
S31500003778DF200A6855008A684CBF44F4007444F494
S315000037880064520048BF44F002041A68A4B2548286
S31500003798CA68002A66D0148926052ED42546AD05A2
S315000037A80DD5D67C957C35431E6886F8A6501D68CF
S315000037B8D689A5F8A860158A1A68A2F8AA501A68C0
S315000037C8A2F890401A680C8AA2F880403A796AB141
S315000037D8B0FA80F01C68228892B222F01F021F32CB
S315000037E8121A92B22280988A02439A82234A0020A9
S315000037F8DA600A681A61BDE8F0871D68A5F8904086
S315000038081D685689A5F89C601D689689A5F89E606E
S3150000381815681E681FFA85FCA6F894C04FEA154C71
S315000038281E682CF4C04C1FFA8CFCA6F896C01E68BD
S31500003838C5F3417586F8925055681E681FFA85FCCF
S31500003848A6F898C04FEA154C1E682CF4C04C1FFA0F
S315000038588CFCA6F89AC01E68C5F3417586F8935085
S3150000386815899CE71446AAE7680E002000E0014087
S31500003878D34D62100040084000300F404344415287
S3150000388883DE1B4310B400F1604C134C0901134B43
S31500003898C9B20CF5614C8CF8001300F1C00144F86C
S315000038A8202053F8212022F4803243F8212053F8AF
S315000038B82130BFF35F8F012243099B0000F01F00F0
S315000038C803F1604303F561438240C3F880211A601F
S315000038D85DF8044B704700BF240E002000600040CE
S315000038E800222DE9F8434E694160CB68044683619E
S315000038F80B690D46C0E907230B885B0203F1804379
S3150000390803F5B813036048698B78827807795B03F7
S31500003918002A6AD143F45071002F6BD189B2A18273
S315000039288278C77812022B7907F03F0702F47C5297
S315000039383A43EF78DB0343EA4703477890F800E019
S3150000394843EA4713EFF310894FF0010C8CF3108804
S31500003958B5F800802D4FC8F110080CFA08FCD7F806
S315000039680C8028EA0C0CC7F80CC0FF6889F310888D
S3150000397847F6FF573940276892B2398021689BB2CB
S315000039880A822268D381236883F80CE08379226847
S31500003998A3F10103B3FA83F35B0982F8D03095F9F2
S315000039A80600002803DB2246697AFFF76BFF95F9C4
S315000039B80700002803DB2246A97AFFF763FF96F97A
S315000039C80700002803DB2246717AFFF75BFF96F9AA
S315000039D80800002803DB2246B17AFFF753FF0020D0
S315000039E80B4B2061A360BDE8F8833F2A43F41071AE
S315000039F808D117B141F0800190E743F4024141F044
S31500003A0840018BE7002F89D0F4E700BF004008404B
S31500003A1843444152064B074993F826001A6A51F85F
S31500003A282030C2F302620449D3400B60704700BFDE
S31500003A3800E0014000050020680E0020704700BF26
S31500003A48F8B54AF2035001234549464AA1F8FE0350
S31500003A58A2F80431B2F804319BB2002BFAD1012046
S31500003A684FF400454FF0090C3F4CDFF818E13F4E84
S31500003A78C4F804E0DFF810E13D4FC4F80CE0A2F802
S31500003A8800013C4A3649B06030602760A560256170
S31500003A98626191F82620086A54F82220364EC0F34F
S31500003AA80260C240326081F8133481F8A2C091F8EE
S31500003AB880341BB991F8813499074CD0284D95F874
S31500003AC88034002B3CD00022254B83F8812483F8D0
S31500003AD880240023224981F8323091F83C301A07B5
S31500003AE8FBD543F2021000231D4A088581F82A30C7
S31500003AF892F83C309B06FBD50320052319494FF065
S31500003B08F10C81F81C011D49116282F8263092F8E1
S31500003B182630156A54F82300C5F30264E040306085
S31500003B280123F0244FF42540154981F80CC00B7287
S31500003B380C7382F8303082F85230A2F8FE03F8BDD2
S31500003B480121C82085F8801400F080F895F88034A3
S31500003B58012BFBD1B7E74FF47A70FFF76FFFB8E791
S31500003B6800E0014000C00140000500200070004050
S31500003B78002D310100C2EB0B680E00202112012036
S31500003B880020004000127A0000366E0138B5002584
S31500003B98284C0121C82084F8285000F057F884F8EA
S31500003BA8245094F82430002BFBD194F82430214972
S31500003BB843F0020384F8243091F82430C3F340001C
S31500003BC89B07F9D41B4A81F8220092F8223003F0A9
S31500003BD8FF00002BF9D192F84030164960F3C7135D
S31500003BE882F8403091F84030DB09FBD191F8420069
S31500003BF8104A63F3C71081F8420092F84230DB0995
S31500003C08FBD192F844000B4963F3C71082F84400CD
S31500003C1891F84430C3F3C014DB09F9D1012000F050
S31500003C28F5F8054B012083F8BB44BDE8384000F0A1
S31500003C38BDB800BF0030084000E00140704700BF33
S31500003C48A0F101000028FBD1704700BF1F4B204A96
S31500003C581B6800FB01F1934213D302F1854202F57A
S31500003C68071203F5741302F6834203F6FF03A2FB59
S31500003C7803231B0DA3FB01314FF0FF30F9B1FFF70A
S31500003C88DFBF4FF47A7210B4A1FB02C41148B0FB2F
S31500003C98F3F34FF0FF3044B9BCFBF3FC4FEA9C004A
S31500003CA888B15DF8044BFFF7CBBF9B00B1FBF3F17E
S31500003CB8A1FB0212002AF4D1084620B1F1E7184602
S31500003CC8002BDCD170475DF8044B7047680E002066
S31500003CD800127A0000CA9A3B70B500240B4B0C4EB2
S31500003CE8B3F82021B3F84051ADB2154025FA04F3D4
S31500003CF8DB0704D556F82430E0B203B198470134FF
S31500003D08102CF3D1014BA3F8305170BD0060004070
S31500003D18E00D002070B5032084B000F077F8002687
S31500003D286FF0FF014FF0FF301C4C1D4B2246996483
S31500003D384FF0010E3346CDE9010004F11E0503904C
S31500003D4832F8021F0EFA03FC013311B1012620EAEC
S31500003D580C00AA42F4D1F6B10190124B104A106732
S31500003D68C3F88002029903205167C3F884120399A5
S31500003D789167C3F8881200F019F800230A4834F846
S31500003D88022F03F1C00101330AB140F82120A542F0
S31500003D98F5D104B070BD4FF0FF30DEE7EA5B0000F6
S31500003DA80080004000E100E000600040EFF3108171
S31500003DB8012383F31088124B33F8102092B22AB1EC
S31500003DC833F81020013A92B223F8102033F8103055
S31500003DD89BB293B910B40B4A0B4CB2F8FE3334F8C5
S31500003DE810009BB243F4254323EA0003A2F8FE33EE
S31500003DF881F310885DF8044B704781F3108870478B
S31500003E08600E002000E00140205D000030B4EFF3B2
S31500003E181081012383F310880E4A32F810309BB2C2
S31500003E286BB90D4C0D4DB4F8FE3335F810C09BB286
S31500003E3843EA0C0343F425439BB2A4F8FE3332F855
S31500003E48103001339BB222F8103081F3108830BC51
S31500003E58704700BF600E002000E00140205D0000B2
S31500003E6808B500F023FD0C2203461A604FF0FF3018
S31500003E7808BD00BF00BE704708B500F035F8FEF76C
S31500003E881FFDFEE7F8B5174F05463E68A6B17C68E4
S31500003E9806EB460604EB860602E00C34B4420BD069
S31500003EA8637AAB42F9D1D4E900020021121A0C3424
S31500003EB800F0F4FCB442F3D1BE6896B1FC6804EB9A
S31500003EC8061602E01034A6420BD0637BAB42F9D14A
S31500003ED8D4E90002A168121A103400F0F9FCA642CF
S31500003EE8F3D1F8BD485C00004FF47001274B284A0F
S31500003EF870B50020C3F888109A60FDF74DFFFFF7EC
S31500003F089FFD0120FDF748FF224B83F30A88002016
S31500003F18FFF7B8FFFFF77EFDFFF738FE0320FFF730
S31500003F2875FF00234FF6FF701B4903F108020133A2
S31500003F380C2B21F81200F8D100240320FFF736FFD6
S31500003F480320FFF763FF154B03205C609C60DC6071
S31500003F581C61FFF72BFF0220FDF71EFF0120FFF76C
S31500003F6891FF0F4D0F4B5B1BA3424FEAA30605DDDE
S31500003F7855F8043B01349847A642F9DCFFF7CAFE18
S31500003F88BDE870400020FFF759BE00BF00ED00E015
S31500003F980000000000010020000D084000000E404F
S31500003FA8B45D0000B85D000081F0004102E000BF8A
S31500003FB883F0004330B54FEA41044FEA430594EADB
S31500003FC8050F08BF90EA020F1FBF54EA000C55EA16
S31500003FD8020C7FEA645C7FEA655C00F0E2804FEAE7
S31500003FE85454D4EB5555B8BF6D420CDD2C4480EAC9
S31500003FF8020281EA030382EA000083EA010180EAF9
S31500004008020281EA0303362D88BF30BD11F0004F46
S315000040184FEA01314FF4801C4CEA113102D040427C
S3150000402861EB410113F0004F4FEA03334CEA1333B7
S3150000403802D0524263EB430394EA050F00F0A780CF
S31500004048A4F10104D5F1200E0DDB02FA0EFC22FACA
S3150000405805F2801841F1000103FA0EF2801843FABE
S3150000406805F359410EE0A5F120050EF1200E012AAF
S3150000407803FA0EFC28BF4CF0020C43FA05F3C018ED
S3150000408851EBE37101F0004507D54FF0000EDCF166
S31500004098000C7EEB00006EEB0101B1F5801F1BD30F
S315000040A8B1F5001F0CD349085FEA30004FEA3C0C13
S315000040B804F101044FEA445212F5800F80F09A8009
S315000040C8BCF1004F08BF5FEA500C50F1000041EB0D
S315000040D8045141EA050130BD5FEA4C0C404141EB11
S315000040E80101013C28BFB1F5801FE9D291F0000F0C
S315000040F804BF01460020B1FA81F308BF2033A3F1BB
S315000041080B03B3F120020CDA0C3208DD02F1140CB1
S31500004118C2F10C0201FA0CF021FA02F10CE002F1EC
S315000041281402D8BFC2F1200C01FA02F120FA0CFCE5
S31500004138DCBF41EA0C019040E41AA2BF01EB04512E
S31500004148294330BD6FEA04041F3C1CDA0C340EDC2C
S3150000415804F11404C4F1200220FA04F001FA02F36F
S3150000416840EA030021FA04F345EA030130BDC4F12D
S315000041780C04C4F1200220FA02F001FA04F340EA22
S315000041880300294630BD21FA04F0294630BD94F0D3
S31500004198000F83F4801306BF81F480110134013DBA
S315000041A84EE77FEA645C18BF7FEA655C29D094EA2B
S315000041B8050F08BF90EA020F05D054EA000C04BFA9
S315000041C81946104630BD91EA030F1EBF0021002094
S315000041D830BD5FEA545C05D14000494128BF41F033
S315000041E8004130BD14F580043CBF01F5801130BD97
S315000041F801F0004545F0FE4141F470014FF0000022
S3150000420830BD7FEA645C1ABF194610467FEA655CD2
S315000042181CBF0B46024650EA013406BF52EA033574
S3150000422891EA030F41F4002130BD00BF90F0000F62
S3150000423804BF0021704730B54FF4806404F132049E
S315000042484FF000054FF0000150E700BF90F0000F57
S3150000425804BF0021704730B54FF4806404F132047E
S3150000426810F0004548BF40424FF000013EE700BF4E
S3150000427842004FEAE2014FEA31014FEA02701FBFDE
S3150000428812F07F4393F07F4F81F06051704732F010
S315000042987F4208BF704793F07F4F04BF41F4002167
S315000042A8704730B54FF4607401F0004521F00041C5
S315000042B81CE700BF50EA010208BF704730B54FF04F
S315000042C800050AE050EA010208BF704730B511F050
S315000042D8004502D5404261EB41014FF4806404F188
S315000042E832045FEA915C3FF4D8AE4FF003025FEA0E
S315000042F8DC0C18BF03325FEADC0C18BF033202EB92
S31500004308DC02C2F1200300FA03FC20FA02F001FAEB
S3150000431803FE40EA0E0021FA02F11444BDE600BF8E
S3150000432870B54FF0FF0C4CF4E06C1CEA11541DBF3D
S315000043381CEA135594EA0C0F95EA0C0F00F0DEF808
S315000043482C4481EA030621EA4C5123EA4C5350EAED
S31500004358013518BF52EA033541F4801143F480133E
S3150000436838D0A0FB02CE4FF00005E1FB02E506F0CF
S315000043780042E0FB03E54FF00006E1FB03569CF024
S31500004388000F18BF4EF0010EA4F1FF04B6F5007F2A
S3150000439864F5407404D25FEA4E0E6D4146EB06069C
S315000043A842EAC62141EA55514FEAC52040EA5E5025
S315000043B84FEACE2EB4F1FD0C88BFBCF5E06F1ED8CF
S315000043C8BEF1004F08BF5FEA500E50F1000041EB06
S315000043D8045170BD06F0004646EA010140EA0200B3
S315000043E881EA0301B4EB5C04C2BFD4EB0C0541EAD5
S315000043F8045170BD41F480114FF0000E013C00F3EA
S31500004408AB8014F1360FDEBF002001F0004170BD0D
S31500004418C4F10004203C35DA0C341BDC04F1140426
S31500004428C4F1200500FA05F320FA04F001FA05F2B2
S3150000443840EA020001F0004221F0004110EBD3707F
S3150000444821FA04F642EB06015EEA430E08BF20EAAB
S31500004458D37070BDC4F10C04C4F1200500FA04F34E
S3150000446820FA05F001FA04F240EA020001F00041E0
S3150000447810EBD37041F100015EEA430E08BF20EA53
S31500004488D37070BDC4F1200500FA05F24EEA020E9B
S3150000449820FA04F301FA05F243EA020321FA04F0CA
S315000044A801F0004121FA04F220EA020000EBD37081
S315000044B85EEA430E08BF20EAD37070BD94F0000F81
S315000044C80FD101F00046400041EB010111F4801FB5
S315000044D808BF013CF7D041EA060195F0000F18BF66
S315000044E8704703F00046520043EB030313F4801FA2
S315000044F808BF013DF7D043EA0603704794EA0C0F5C
S315000045080CEA135518BF95EA0C0F0CD050EA410671
S3150000451818BF52EA4306D1D181EA030101F00041EE
S315000045284FF0000070BD50EA410606BF1046194616
S3150000453852EA430619D094EA0C0F02D150EA013622
S3150000454813D195EA0C0F05D152EA03361CBF104663
S3150000455819460AD181EA030101F0004141F0FE4102
S3150000456841F470014FF0000070BD41F0FE4141F486
S31500004578780170BD70B54FF0FF0C4CF4E06C1CEA86
S3150000458811541DBF1CEA135594EA0C0F95EA0C0F3B
S3150000459800F0A7F8A4EB050481EA030E52EA0335F6
S315000045A84FEA013100F088804FEA03334FF0805517
S315000045B845EA131343EA12634FEA022245EA111544
S315000045C845EA10654FEA00260EF000419D4208BFF5
S315000045D8964244F1FD0404F5407402D25B084FEAA2
S315000045E83202B61A65EB03055B084FEA32024FF44E
S315000045F880104FF4002CB6EB020E75EB030E22BFAB
S31500004608B61A754640EA0C005B084FEA3202B6EB6A
S31500004618020E75EB030E22BFB61A754640EA5C0019
S315000046285B084FEA3202B6EB020E75EB030E22BFA9
S31500004638B61A754640EA9C005B084FEA3202B6EBAA
S31500004648020E75EB030E22BFB61A754640EADC0069
S3150000465855EA060E18D04FEA051545EA16754FEACB
S3150000466806164FEAC30343EA52734FEAC2025FEAE9
S315000046781C1CC0D111F4801F0BD141EA00014FF078
S3150000468800004FF0004CB6E711F4801F04BF014349
S315000046980020B4F1FD0C88BFBCF5E06F3FF6AFAE65
S315000046A8B5EB030C04BFB6EB020C5FEA500C50F1F5
S315000046B8000041EB045170BD0EF0004E4EEA113178
S315000046C814EB5C04C2BFD4EB0C0541EA045170BD7F
S315000046D841F480114FF0000E013C90E645EA060EC3
S315000046E88DE60CEA135594EA0C0F08BF95EA0C0FF1
S315000046F83FF43BAF94EA0C0F0AD150EA01347FF439
S3150000470834AF95EA0C0F7FF425AF104619462CE70F
S3150000471895EA0C0F06D152EA03353FF4FDAE104672
S31500004728194622E750EA410618BF52EA43067FF4C3
S31500004738C5AE50EA41047FF40DAF52EA43057FF453
S31500004748EBAE12E74A0011D212F5001211D20DD5BE
S315000047586FF47873B3EB62520ED44FEAC12343F079
S31500004768004343EA505323FA02F070474FF0000023
S31500004778704750EA013002D14FF0FF3070474FF0D2
S31500004788000070474FEA4102B2F1E04324BFB3F597
S31500004798001CDCF1FE5C0DD901F0004C4FEAC002AA
S315000047A84CEA5070B2F1004F40EB830008BF20F08E
S315000047B80100704711F0804F21D113F13872BCBF48
S315000047C801F00040704741F480114FEA5252C2F19D
S315000047D81802C2F1200C10FA0CF320FA02F018BFE6
S315000047E840F001004FEAC1234FEAD32303FA0CFC39
S315000047F840EA0C0023FA02F34FEA4303CCE77FEAC8
S31500004808625307D150EA01331EBF4FF0FE4040F411
S315000048184000704701F0004040F0FE4040F40000C0
S31500004828704700BF30B514469BB005461A46002CA3
S3150000483805DA8B2303604FF0FF301BB030BD4FF411
S315000048480273009104916946ADF80C304FF00003ED
S31500004858199314BF04F1FF332346029305934FF6C9
S31500004868FF73ADF80E301E9B00F098F9431CBCBFD1
S315000048788B232B60002CE0D0009B00221A70DCE70B
S3150000488807B5009313460A46014603480068FFF732
S31500004898C9FF03B05DF804FB9C00002002440346F0
S315000048A8934200D1704703F8011BF9E7014B1868DA
S315000048B8704700BF9C0000207047704710F8012B16
S315000048C811F8013B012A28BF9A42F7D0D01A70473F
S315000048D80A44431E914200D1704710B511F8014BA6
S315000048E8914203F8014FF9D110BD000038B50546CD
S315000048F8002941D051F8043C0C1F002BB8BFE4181E
S3150000490800F0E0F81D4A136833B96360146028465E
S31500004918BDE8384000F0DCB8A34208D92068211861
S315000049288B4201BF19685B6809182160EDE71A46D2
S315000049385B680BB1A342FAD911685018A0420BD193
S3150000494820680144501811608342E0D118685B68FA
S31500004958084453601060DAE702D90C232B60D6E7C7
S31500004968206821188B4202BF19685B6809186360C2
S3150000497808BF21605460CAE738BD00BFB00F0020E9
S3150000498870B50F4E0C460546316811B900F0B0FBFC
S3150000499830602146284600F0ABFB431C03D14FF09C
S315000049A8FF34204670BDC41C24F00304A042F8D08E
S315000049B8211A284600F09CFB0130F2D1EFE700BF30
S315000049C8AC0F00202DE9F843CD1C064625F003055B
S315000049D808350C2D38BF0C25002D01DBA94204D95A
S315000049E80C2333600020BDE8F883DFF8D48000F09C
S315000049F869F8D8F800301C4644BB29463046FFF70C
S31500004A08BFFF431C044658D1D8F800402746002F5C
S31500004A1843D1002C4BD023683946304604EB0309B2
S31500004A2800F066FB814542D1216830466D1A294659
S31500004A38FFF7A6FF01303AD023682B442360D8F845
S31500004A4800305A6862BBC8F800700FE02268521B33
S31500004A5820D40B2A17D96119A342256018BF5960BB
S31500004A68636808BFC8F8001062514B60304600F012
S31500004A782FF804F10B00231D20F00700C21A1CBFF3
S31500004A881B1AA350AFE76268A3420CBFC8F8002000
S31500004A985A60EBE723466468AEE73C467F68B6E7AC
S31500004AA81A465B68A342FBD100235360DEE70C235A
S31500004AB83046336000F00CF894E70560D6E700BF8F
S31500004AC8B00F00200148FFF7F7BE00BFA80F00206F
S31500004AD80148FFF7F2BE00BFA80F00202DE9F047F6
S31500004AE81F468E6882460C46BE429046334653D8C9
S31500004AF8B1F90C0010F4906F2BD065692368096929
S31500004B0805EB4505A3EB010905EBD5757B1C6D1077
S31500004B184B442A46AB4284BF1D462A46430527D541
S31500004B2811465046FFF74EFF064658B34A462169D6
S31500004B38FFF7CEFEA38923F4906343F08003A38195
S31500004B4826614E4465613B46A5EB090526603E464F
S31500004B58A5601F463A464146206800F0AFFAA368AA
S31500004B6800209B1BA36023683B442360BDE8F087B5
S31500004B78504600F0DBFA06460028E1D12169504686
S31500004B88FFF7B4FE0C234FF0FF30CAF80030A389B4
S31500004B9843F04003A381E9E73E46DBE72DE9F0470A
S31500004BA81F468B899CB006461B060D46144610D533
S31500004BB80B6973B94021FFF705FF2860286130B9F2
S31500004BC80C2333604FF0FF301CB0BDE8F08740235C
S31500004BD86B61002303974FF00108674F0993202361
S31500004BE88DF8293030238DF82A302346994613F854
S31500004BF8012B0AB1252AF9D1B9EB040A0BD0534681
S31500004C08224629463046FFF769FF013000F0A480A6
S31500004C18099A5244099299F80030002B00F09C80BA
S31500004C2800234FF0FF3209F10109049307938DF829
S31500004C3853301A93CDE905234C4605224E4814F8FD
S31500004C48011B00F065FA049BD0B9D80644BF2022A0
S31500004C588DF85320190744BF2B228DF8532099F855
S31500004C6800202A2A13D0079A4C4600204FF00A0C37
S31500004C78214611F8013B303B092B49D968B913E0A5
S31500004C88C01BA14608FA00F018430490D4E7039A1B
S31500004C98111D1268002A039101DB079204E05242B3
S31500004CA843F002030792049323782E2B0AD16378E4
S31500004CB82A2B32D1039B02341A1D1B6843EAE3737D
S31500004CC803920593DFF8C09003222178484600F046
S31500004CD81FFA38B1A0EB09004022049B0134824038
S31500004CE81343049314F8011B062224488DF8281050
S31500004CF800F00EFA002835D0214818BB039B07336D
S31500004D0823F0070308330393099B034409936CE7CD
S31500004D180CFB02320C460120AAE7002301344FF0AF
S31500004D280A0C19460593204610F8012B303A092A31
S31500004D3803D9002BC6D00591C4E70CFB0121044614
S31500004D480123F0E703AB2A4604A9304600930D4B2E
S31500004D58AFF30080421CD7D1AB895B063FF532AF73
S31500004D68099831E703AB2A4604A930460093054B58
S31500004D7800F07EF8EEE700BF285D0000325D000017
S31500004D8800000000E54A00002E5D00002DE9F0470E
S31500004D98164698468A6807460B690C46DDF8209041
S31500004DA89342B8BF1346336091F843200AB10133E2
S31500004DB833602368990642BF336802333360256837
S31500004DC815F0060506D104F1190AE36832689B1A3C
S31500004DD8AB422BDC94F843302268003B18BF012312
S31500004DE8920630D404F1430241463846C84701309A
S31500004DF823D023681A3454F80A2C03F00603042B2C
S31500004E080ABF54F80E5C002533684FF0000608BF49
S31500004E18ED1A54F8123C08BF25EAE5759342C4BF5B
S31500004E289B1AED18B5421AD1002008E00123524614
S31500004E3841463846C847013003D14FF0FF30BDE838
S31500004E48F0870135C1E7E1185A1C302002332244A5
S31500004E5881F8430094F8451082F84310C2E701230D
S31500004E68224641463846C8470130E6D00136D9E7DA
S31500004E782DE9F0430D7E85B090460746782D0C4601
S31500004E8899460C9E01F1430207D8622D0AD8002DD7
S31500004E9800F0D780582D00F0BC8004F1420684F853
S31500004EA842503BE0A5F16303152BF6D801A151F852
S31500004EB823F000BF154F0000294F0000A34E000045
S31500004EC8A34E0000A34E0000A34E0000294F000089
S31500004ED8A34E0000A34E0000A34E0000A34E000000
S31500004EE831500000534F0000E34F0000A34E00006E
S31500004EF8A34E000053500000A34E0000534F00007D
S31500004F08A34E0000A34E0000EB4F000033681A1DA5
S31500004F181B68326004F1420684F842300123A1E09E
S31500004F2833682068191D3160060601D51D6803E03F
S31500004F384506FBD5B3F90050002D03DA2D236D4243
S31500004F4884F843305B480A2311E021683368080671
S31500004F5853F8045B02D4490648BFADB23360237EDA
S31500004F6854486F2B5CD10823002184F843106668E7
S31500004F78002EA66005DB21682E4321F0040121607E
S31500004F8850D01646B5FBF3F103FB115C10F80CC0C4
S31500004F9806F801CDAC460D466345F3D9082B0BD16F
S31500004FA82368DB0708D5236961689942DEBF302389
S31500004FB806F8013C06F1FF36921B2261434603AA16
S31500004FC821463846CDF80090FFF7E0FE01304ED175
S31500004FD84FF0FF3005B0BDE8F083236843F02003A7
S31500004FE8236078253448236884F8455013F0800FE9
S31500004FF8316851F8045B03D113F0400F18BFADB206
S315000050083160D90744BF43F0200323601DB1102344
S31500005018AAE72848E7E7236823F020032360F6E792
S315000050280A23A1E71646B9E733682568181D61699A
S3150000503830602E061B6801D5196002E06806FBD5AC
S315000050481980002316462361B8E7336800211A1D24
S3150000505832601E686268304600F05AF808B1801B54
S31500005068606063682361002384F84330A6E72369F8
S31500005078324641463846C8470130A9D023689B07BF
S3150000508813D4E068039B9842B8BF1846A2E70123E9
S31500005098324641463846C847013099D00135E3685B
S315000050A803995B1AAB42F2DCEBE7002504F119061B
S315000050B8F5E700BF395D00004A5D0000884210B57B
S315000050C801EB020402D98442234607D8431EA142B3
S315000050D807D011F8012B03F8012FF8E702448242A2
S315000050E800D110BD13F8011D02F8011DF7E70000F5
S315000050F838B50023054D044608462B60FEF7B0FE7A
S31500005108431C02D12B6803B1236038BDA40F0020CD
S31500005118C9B20346024410B59342184601D100208D
S3150000512803E0047801338C42F6D110BD2DE9F04135
S31500005138074614460D4621B91146BDE8F041FFF76A
S3150000514841BC2AB92546FFF7D1FB2846BDE8F081C0
S3150000515800F01AF88442064602D8B4EB500FF4D889
S3150000516821463846FFF72EFC804608B94546ECE747
S31500005178B4422246294628BF3246FFF7A9FB2946EC
S315000051883846FFF7B3FBF1E751F8043C181F002B2C
S31500005198BCBF0B58C0187047000000000000000094
S315000051A80000000000000000000000F800000000F9
S315000051B8000000333000000000100C06100C06003A
S315000051C8000000000000000040C07840C0784000A1
S315000051D8043F04043F040400007088FC0830000003
S315000051E8001820FF211E0000F008F000E01800005B
S315000051F800211C031E211E0000F008887000000014
S315000052081E2123241927211010160E000000000065
S315000052180000000000000000000000E01804020082
S31500005228000000071820400000020418E0000000F3
S315000052380040201807000000404080F080404000F1
S315000052480202010F01020200000000F00000000047
S315000052580101011F0101010000000000000000001B
S3150000526880B0700000000000000000000000000090
S315000052780001010101010101000000000000000019
S3150000528800303000000000000000000080601804B4
S31500005298006018060100000000E010080810E00091
S315000052A8000F102020100F00001010F8000000005A
S315000052B80020203F202000000070080808887000A1
S315000052C80030282422213000003008888848300021
S315000052D80018202020110E000000C02010F8000041
S315000052E800070424243F240000F8088888080800DA
S315000052F80019212020110E0000E0108888180000EF
S31500005308000F112020110E0000380808C8380800C0
S315000053180000003F00000000007088080888700040
S31500005328001C222121221C0000E010080810E000C1
S315000053380000312222110F00000000C0C00000004A
S31500005348000000303000000000000080000000006F
S315000053580000806000000000000080402010080067
S315000053680001020408102000404040404040400030
S31500005378040404040404040000081020408000000B
S315000053880020100804020100007048080808F00010
S315000053980000003036010000C030C828E810E000E0
S315000053A80718272423140B000000C038E00000006B
S315000053B8203C23020227382008F8888888700000D5
S315000053C8203F202020110E00C030080808083800A9
S315000053D8071820202010080008F808080810E00020
S315000053E8203F202020100F0008F88888E8081000C1
S315000053F8203F20202320180008F88888E808100095
S31500005408203F200003000000C030080808380000CC
S3150000541807182020221E020008F808000008F808CD
S31500005428203F210101213F20000808F80808000054
S315000054380020203F2020000000000808F808080087
S31500005448C08080807F00000008F888C028180800FF
S31500005458203F20012638200008F808000000000038
S31500005468203F20202020300008F8F800F8F808002F
S31500005478203F003F003F200008F830C00008F80829
S31500005488203F200007183F00E01008080810E00039
S315000054980F10202020100F0008F808080808F00050
S315000054A8203F210101010000E01008080810E00073
S315000054B80F18242438504F0008F888888888700008
S315000054C8203F2000030C30200070880808083800A8
S315000054D80038202121221C00180808F8080818009E
S315000054E80000203F2000000008F808000008F8081F
S315000054F8001F202020201F000878880000C83808D0
