S00B00007261312E7372656315
S3150000000000050020A529000009280000A1290000FC
S31500000010A1290000A1290000A1290000A1290000B2
S31500000020000000000000000000000000A129000000
S31500000030A129000000000000A1290000A12900005C
S31500000040011A000079190000911A0000D91A00005F
S31500000050FD200000011A000079190000911A000025
S30900000060D91A0000A3
S315000000642902100025BC518109079300FFFF75FF83
S31500000074FE0D001701000000000000000000000053
S315000000843000170A00000000000000000000001104
S3150000009402000208000810010100000000FF00022F
S315000000A40000000000200B000002FF2100000100F8
S315000000B40000008C000038FF0100270034006507AB
S315000000C4008705016800C008380000000099C800D0
S315000000D40300000000000207050606030002C7FF2E
S315000000E4DB02000001012100C800000040003500C9
S315000000F44001A10098000020000000002407002011
S315000001048C070020F4070020000000000000000017
S3150000011400000000000000000000000000000000D5
S3150000012400000000000000000000000000000000C5
S3150000013400000000000000000000000000000000B5
S3090000014400000000B1
S315000001480348044B834202D0034B03B11847704758
S31500000158E4000020E400002000000000064B0749E8
S31500000168C91A891048BF0131491003D0044B0BB195
S3150000017801481847704700BFE4000020E40000204B
S315000001880000000010B5064C237843B9FFF7D8FFE6
S31500000198044B13B10448AFF300800123237010BD4C
S315000001A8200500200000000084A2000108B5054BC8
S315000001B81BB105490548AFF30080BDE80840FFF7C5
S315000001C8CDBF00BF000000002405002084A2000166
S315000001D808B501220421134801F0E6FC0122032197
S315000001E8104801F0E1FC0121062002F0C3FA0122C1
S315000001F803210C4801F0D8FC00220421094801F02B
S31500000208D3FC0121062002F0B5FA01220321054894
S3150000021801F0CAFCBDE8084000220321014801F0AC
S31500000228C3BC00BF0406002008B5002204210D48FF
S3150000023801F0BAFC0121052002F09CFA01220321F3
S31500000248084801F0B1FC0121052002F093FA0421C7
S315000002580122044801F0A8FCBDE808400121052058
S3150000026802F088BA0406002030B5012283B00421C2
S31500000278164801F099FC0121042002F07BFA0122BC
S315000002880321124801F090FC0121042002F072FAC1
S31500000298FB2402E013F0FF0412D004210B480DF1F1
S315000002A8070201F057FC9DF80750631E002DF1D197
S315000002B82A460321054801F077FC284603B030BDDD
S315000002C80125FFF7B1FF284603B030BD040600201C
S315000002D838B5002204460321144801F065FC0825B8
S315000002E823064CBF012200220421104801F05CFCC1
S315000002F8012103208C4002F03DFA012203210B481C
S3150000030801F052FC0121032002F034FA00220321F5
S31500000318064801F049FC0121032002F02BFA6B1E66
S3150000032813F0FF05E4B2DBD138BD00BF0406002098
S3150000033838B50025FFF74CFF7820FFF7C9FFFFF710
S3150000034893FF0020FFF7C4FFFFF78EFF65F04F000D
S31500000358C0B2FFF7BDFFFFF787FFFFF765FFFFF79F
S3150000036837FF7820FFF7B4FFFFF77EFF0020FFF77F
S31500000378AFFFFFF779FF1020FFF7AAFFFFF774FF1B
S31500000388FFF752FFFFF724FF7820FFF7A1FFFFF7DB
S315000003986BFF0020FFF79CFFFFF766FF0020FFF7C3
S315000003A897FF8024FFF760FFFFF73EFFFFF710FF78
S315000003B87820FFF78DFFFFF757FF4020FFF788FFEC
S315000003C8FFF752FF0020FFF783FFFFF74DFFFFF708
S315000003D82BFF631E13F0FF04E8D10135082DA9D1C0
S315000003E838BD00BF2DE9F84F074614464E1EFFF7E5
S315000003F8EFFE7820FFF76CFFFFF736FF0020FFF7C8
S3150000040867FFFFF731FF781E4000F60060F04F00E7
S31500000418F6B200F0FE004FEA1618FFF759FFFFF78D
S3150000042823FFFFF701FFFFF7D3FE7820FFF750FF02
S3150000043848F01008FFF718FF0020FFF749FFFFF7FD
S3150000044813FF4046FFF744FFFFF70EFFFFF7ECFEEA
S31500000458FFF7BEFE7820FFF73BFF06F00806FFF71A
S3150000046803FF0020FFF734FFFFF7FEFE3046FFF7D5
S315000004782FFFFFF7F9FEFFF7D7FE3E4D203C05F1AB
S31500000488080A4FEA04190AEB041A05EB041414F8CF
S3150000049801BBFFF79DFE7820FFF71AFFFFF7E4FE82
S315000004A84020FFF715FFFFF7DFFE5846FFF710FF5E
S315000004B8FFF7DAFEFFF7B8FE5445E8D1FFF788FEE6
S315000004C87820FFF705FFFFF7CFFE0020FFF700FFB4
S315000004D8FFF7CAFE7800013860F04F00C0B2FFF798
S315000004E8F7FEFFF7C1FEFFF79FFEFFF771FE7820C4
S315000004F8FFF7EEFEFFF7B8FE0020FFF7E9FEFFF76D
S31500000508B3FE4046FFF7E4FEFFF7AEFEFFF78CFEAC
S31500000518FFF75EFE7820FFF7DBFEFFF7A5FE00205B
S31500000528FFF7D6FEFFF7A0FE3046134EFFF7D0FEC4
S31500000538FFF79AFEFFF778FE09F10703EC184E4419
S3150000054814F8015FFFF744FE7820FFF7C1FEFFF7B6
S315000005588BFE4020FFF7BCFEFFF786FE2846FFF716
S31500000568B7FEFFF781FEFFF75FFEB442E8D1BDE8AC
S31500000578F88F00BF543A0000633A0000F8B51546F4
S3150000058892F9002062B106460F4600243919013453
S315000005983046C9B2E4B2FFF725FF2A57002AF5D13B
S315000005A8F8BD00BFBBB32DE9F04106461446984690
S315000005B8194F5D18A5EB0801B8F1010FC9B2A8F1EA
S315000005C8020219D00123013A03EB8303501C4FEAB8
S315000005D84303F8D1B4FBF3F3A7FB03C2D20802EB3B
S315000005E88202A3EB420303F13002304652B2FFF710
S315000005F8F9FE08F1FF38DDE7074B3046A3FB042375
S31500000608DB0803EB8303A4EB4302303252B2BDE8A6
S31500000618F041FFF7E7BE7047CDCCCCCC08B54FF418
S315000006287A71C82002F0A6F8DE4BDF48596801F057
S31500000638F9FBFFF7CDFD7820FFF74AFEFFF714FE1A
S315000006480020FFF745FEFFF70FFEAE20FFF740FE3E
S31500000658FFF70AFEFFF7E8FDFFF7BAFD7820FFF778
S3150000066837FEFFF701FE0020FFF732FEFFF7FCFD1D
S31500000678D520FFF72DFEFFF7F7FDFFF7D5FDFFF7AE
S31500000688A7FD7820FFF724FEFFF7EEFD0020FFF711
S315000006981FFEFFF7E9FD8020FFF71AFEFFF7E4FDCE
S315000006A8FFF7C2FDFFF794FD7820FFF711FEFFF76D
S315000006B8DBFD0020FFF70CFEFFF7D6FDA820FFF7AD
S315000006C807FEFFF7D1FDFFF7AFFDFFF781FD7820A5
S315000006D8FFF7FEFDFFF7C8FD0020FFF7F9FDFFF75E
S315000006E8C3FD3F20FFF7F4FDFFF7BEFDFFF79CFDB6
S315000006F8FFF76EFD7820FFF7EBFDFFF7B5FD00204D
S31500000708FFF7E6FDFFF7B0FDD320FFF7E1FDFFF7A2
S31500000718ABFDFFF789FDFFF75BFD7820FFF7D8FDF6
S31500000728FFF7A2FD0020FFF7D3FDFFF79DFD002090
S31500000738FFF7CEFDFFF798FDFFF776FDFFF748FDBB
S315000007487820FFF7C5FDFFF78FFD0020FFF7C0FDF6
S31500000758FFF78AFD4020FFF7BBFDFFF785FDFFF792
S3150000076863FDFFF735FD7820FFF7B2FDFFF77CFD47
S315000007780020FFF7ADFDFFF777FDA120FFF7A8FDE5
S31500000788FFF772FDFFF750FDFFF722FD7820FFF710
S315000007989FFDFFF769FD0020FFF79AFDFFF764FD4F
S315000007A8C820FFF795FDFFF75FFDFFF73DFDFFF753
S315000007B80FFD7820FFF78CFDFFF756FD0020FFF7A9
S315000007C887FDFFF751FDDA20FFF782FDFFF74CFDA5
S315000007D8FFF72AFDFFF7FCFC7820FFF779FDFFF706
S315000007E843FD0020FFF774FDFFF73EFD1220FFF7DB
S315000007F86FFDFFF739FDFFF717FDFFF7E9FC7820D6
S31500000808FFF766FDFFF730FD0020FFF761FDFFF7F4
S315000008182BFD8120FFF75CFDFFF726FDFFF704FDA2
S31500000828FFF7D6FC7820FFF753FDFFF71DFD0020E4
S31500000838FFF74EFDFFF718FDCF20FFF749FDFFF73D
S3150000084813FDFFF7F1FCFFF7C3FC7820FFF740FD27
S31500000858FFF70AFD0020FFF73BFDFFF705FDD9204E
S31500000868FFF736FDFFF700FDFFF7DEFCFFF7B0FCEC
S315000008787820FFF72DFDFFF7F7FC0020FFF728FD8E
S31500000888FFF7F2FCF120FFF723FDFFF7EDFCFFF77A
S31500000898CBFCFFF79DFC7820FFF71AFDFFF7E4FC79
S315000008A80020FFF715FDFFF7DFFCDB20FFF710FD43
S315000008B8FFF7DAFCFFF7B8FCFFF78AFC7820FFF7AA
S315000008C807FDFFF7D1FC0020FFF702FDFFF7CCFC80
S315000008D83020FFF7FDFCFFF7C7FCFFF7A5FCFFF785
S315000008E877FC7820FFF7F4FCFFF7BEFC0020FFF743
S315000008F8EFFCFFF7B9FCA420FFF7EAFCFFF7B4FC0E
S31500000908FFF792FCFFF764FC7820FFF7E1FCFFF79E
S31500000918ABFC0020FFF7DCFCFFF7A6FCA620FFF7E0
S31500000928D7FCFFF7A1FCFFF77FFCFFF751FC782007
S31500000938FFF7CEFCFFF798FC0020FFF7C9FCFFF78E
S3150000094893FC8D20FFF7C4FCFFF78EFCFFF76CFCC9
S31500000958FFF73EFC7820FFF7BBFCFFF785FC00207D
S31500000968FFF7B6FCFFF780FC1420FFF7B1FCFFF792
S315000009787BFCFFF759FCFFF72BFC7820FFF7A8FC58
S31500000988FFF772FC0020FFF7A3FCFFF76DFCAF2012
S31500000998FFF79EFCFFF768FCFFF746FCBDE808403A
S315000009A8FFF7C6BC8C4100000406002008B50121EB
S315000009B8032000F05DFC0121042000F059FC002012
S315000009C800F076FC0021042000F052FC002000F024
S315000009D86FFCBDE808400021032000F049BC00BFB9
S315000009E808B50021032000F043FC0021042000F094
S315000009F83FFC002000F05CFC0121032000F038FCDD
S31500000A08002000F055FC0420012100F031FCBDE86F
S31500000A180840002000F04CBC70B5002106460320B3
S31500000A2800F026FC002000F043FC0121042000F021
S31500000A381FFC08250024002000F03AFC00210320B2
S31500000A4800F016FC002000F033FC0121032000F022
S31500000A580FFC002000F02CFC042000F017FC6400BA
S31500000A68E4B2691E08B10134E4B211F0FF05E2D11F
S31500000A782946032000F0FCFB284600F019FC032059
S31500000A88294600F0F5FB284600F012FC9EB12946DF
S31500000A98042000F0EDFB0121032000F0E9FB002013
S31500000AA800F006FC0021032000F0E2FB002000F025
S31500000AB8FFFB204670BD0121042000F0D9FBEAE7C0
S31500000AC838B5082405462B064CBF01210021042011
S31500000AD800F0CEFB002000F0EBFB0121032000F024
S31500000AE8C7FB002000F0E4FB0021032000F0C0FB58
S31500000AF8611E6D0011F0FF04EDB2E4D1214603201A
S31500000B0800F0B6FB204600F0D3FB0121032000F0DD
S31500000B18AFFB204600F0CCFB042000F0B7FB40B941
S31500000B282146032000F0A4FB2046BDE8384000F02B
S31500000B38BFBB0121BDE83840032000F099BB00BFC8
S31500000B48F8B5044616460D46FFF730FF5220FFF764
S31500000B58B7FF0020FFF7B4FFE0B2FFF7B1FFFFF7DA
S31500000B6825FF5320FFF7ACFF771E4FF0000418BF90
S31500000B780127013DA74214BF01200020FFF74CFFC3
S31500000B880134B44205F8010FF4D1BDE8F840FFF787
S31500000B9827BF00BF70B50B26374D82B0FFF706FF9B
S31500000BA85220FFF78DFF0020FFF78AFF0120FFF78D
S31500000BB887FF324C14F8010BFFF782FFAC42F9D1DC
S31500000BC8FFF70EFFFFF7F2FE5220FFF779FF00202E
S31500000BD8FFF776FF5E20FFF773FF0020FFF770FF31
S31500000BE86520FFF76DFFFFF7FBFEFFF7DFFE5220DC
S31500000BF8FFF766FF0020FFF763FF6120FFF760FF3E
S31500000C080020FFF75DFF8720FFF75AFFFFF7E8FE92
S31500000C18012230200DF10701FFF792FF0122312052
S31500000C280DF107019DF80740FFF78AFF012000F044
S31500000C383FFB9DF807202409731E544013F0FF0656
S31500000C4804F0010417D0642000F032FB002CA5D074
S31500000C58FFF7ACFE5220FFF733FF0020FFF730FF07
S31500000C688620FFF72DFF2120FFF72AFF02B0BDE8F7
S31500000C787040FFF7B5BEFEE78700002000000020A1
S31500000C8830B583B00446FFF791FE5220FFF718FFF0
S31500000C980020FFF715FF8620FFF712FF0120FFF758
S31500000CA80FFFFFF79DFE012289200DF10301FFF7D3
S31500000CB847FF9DF80330892B05D002234FF4AF6018
S31500000CC8237003B030BD00259620022201A9ADF895
S31500000CD80450FFF735FFBDF8040040BA80B2B0F5FE
S31500000CE8AF6F05D901234FF4AF60237003B030BD51
S31500000CF82B46237003B030BD00B583B000F0D8FB97
S31500000D0800B1FEE700F0F0FB00B1FEE700F00CFBD7
S31500000D1800B1FEE7019000F0CFFA00F09FFA0199C2
S31500000D284FF4806000F0A4FA012140F2051000F0AB
S31500000D389FFA012140F2026000F09AFAFFF72AFFB3
S31500000D48FFF76CFC01210F4A0846FFF717FC012143
S31500000D580D4A0220FFF712FC0C4800F08FFB4FF4F7
S31500000D68FA7000F0BDFA4FF47A7000F0A1FAFFF7B6
S31500000D78DFFA01214FF4806003B05DF804EB00F060
S31500000D8877BA00BF444000005040000058400000B9
S31500000D98012110B50846194AFFF7F0FB184A042343
S31500000DA8072101201268FFF7FDFB01210220154AE1
S31500000DB8FFF7E4FB144A0423052102201268FFF713
S31500000DC8F1FB09210220114AFFF7D8FB0121032074
S31500000DD80F4AFFF7D3FB0F4B1B786BB10E4A052161
S31500000DE80320FFF7CBFBBDE810400C4A012309217D
S31500000DF803201278FFF7D6BB094AF0E778400000CF
S31500000E08540500208040000088000020884000002B
S31500000E188C40000050050020684000005105002065
S31500000E287040000008B5134B1A7882B100221249A7
S31500000E3812481A7002F09CF950B111490F4802F095
S31500000E4897F990B10F490D4802F092F940B108BDE3
S31500000E580D4800F0EBFABDE808400C4800F00EBB60
S31500000E680B48BDE8084000F009BB0A48BDE8084041
S31500000E7800F004BB80050020944000008405002093
S31500000E88AC400000C04000009C400000A4400000A8
S31500000E98CC400000B840000070B540F2071000F0E2
S31500000EA8F5F9B8B1154C237813B9154A136070BD16
S31500000EB800F010FA134E3368C51A00F00BFA002337
S31500000EC8B5F52F7FB4BF0122022223700C4B306088
S31500000ED81A6070BD022000F0EBF940F2071000F02E
S31500000EE8D5F90028E3D1054C237813B101232370E3
S31500000EF870BD00F0EFF9034B1860F7E748050020CE
S31500000F085C0500204405002038B5FFF7C5FF304BC7
S31500000F181C68012C02D0022C18D038BD2D4A137833
S31500000F2883F00103137063B92B4800F0A7FA214632
S31500000F384FF4806000F09CF9BDE83840142000F0BA
S31500000F48CFB9264800F09AFA0021F1E7962000F07A
S31500000F58C7F9142000F0ACF9962000F0C1F9204832
S31500000F6800F08CFA4FF47A7000F0A2F900F0B2F9AA
S31500000F7803461C4D1C482B6000F058FA1B4C23787E
S31500000F888BB100231A491B48237002F0F1F8D0B13F
S31500000F981949184802F0ECF80028F0D11748BDE8BE
S31500000FA8384000F06BBA00F095F949F640432A68D4
S31500000FB8801A9842E3D90C4800F038FABDE8384060
S31500000FC80F4800F05BBA0F48BDE8384000F056BA43
S31500000FD85C05002050050020E4400000D4400000D5
S31500000FE8F440000040050020044100008005002070
S31500000FF80C41000084050020244100003041000017
S3150000100838410000184100002DE9F0415648FFF725
S3150000101837FE564B5649A3FB00340A68554B042A3B
S315000010284FEAD4046ADDD3E901071D69D3F80C80B9
S31500001038C3E90007C3E90354C3F80880C82D03D1E0
S315000010481D2CDCBF2546DC6001F0BCFF3EA3D3E9BE
S31500001058002301F03BFD0246384616460F4601F0CE
S31500001068B1FF3BA3D3E9002301F030FD02460B464E
S315000010783046394601F05AFE064640460F4601F00C
S31500001088A1FF35A3D3E9002301F020FD02460B4654
S315000010983046394601F04AFE064628460F4601F014
S315000010A891FF2FA3D3E9002301F010FD0B4602465A
S315000010B83946304601F03AFE024620460D461446A9
S315000010C801F080FF26A3D3E9002301F0FFFC0246C6
S315000010D80B462046294601F029FE01F0DDFF264C85
S315000010E8264B18282278186002D902BBBDE8F08181
S315000010F87AB1BDE8F041142000F0F2B843F8224076
S31500001108501C0860D3F80880D3E90354D3E90007D4
S3150000111894E701231A48237000F0B0F94FF4FA70E7
S3150000112800F0DEF82378002BE3D1BDE8F081002338
S315000011381448237000F0A2F94FF4FA7000F0D0F8C2
S31500001148F0E700BFAFF300809A9999999999E93F1A
S315000011589A9999999999B93F9A9999999999A93F73
S315000011689A9999999999993F74050020CDCCCCCC38
S315000011783C05002060050020580500208800002056
S31500001188444100005041000038B5072000F0DEF861
S31500001198194A1A4BC0F58050147880B2186054B9B1
S315000011A840F6FB03984207DD40F62823984202DD05
S315000011B8134D2B7893B938BD114C2578002DFAD1EB
S315000011C8104800F05BF9C82000F08AF829464FF469
S315000011D8806000F04DF80123237038BD0A4800F0FE
S315000011E84DF9C82000F07CF801214FF4806000F02A
S315000011F83FF82C7038BD00BF50050020540500206C
S31500001208510500205C4100007441000008B5FFF755
S3150000121873FD0B4C05E0FFF777FEFFF7B9FDFFF707
S3150000122801FE00F057F82368C01AB0F5967FF2D38E
S3150000123800F050F82060FFF7E7FEFFF7A5FFEAE7A2
S315000012484C050020022800D070470249024800F0E9
S31500001258E9BD00BF9442000004060020024B034883
S31500001268596800F0DFBD00BF8C410000040600206D
S315000012780A46A2F101020346B2FA82F21946024868
S31500001288520900F091BC00BF0406002000B583B0E7
S3150000129801460DF10702054800F05CFC9DF80700C1
S315000012A8003818BF012003B05DF804FB04060020CF
S315000012B84FF47A7101F05EBA08B50449044800F0A3
S315000012C869FEBDE80840024800F010BECC410000A7
S315000012D83C060020014B1868704700BF78050020BF
S315000012E8012838B500EBD0751ADD00246D100122EF
S315000012F840F205110B4800F057FC4FF47A710120B3
S3150000130801F038FA002240F20511064800F04CFCBC
S3150000131801344FF47A71012001F02CFAAC42E6DB75
S3150000132838BD00BF0406002010B50549054801F080
S315000013386BF804460449034800F038FF204610BD00
S315000013483C4200005C0600202842000010B5044616
S3150000135882B0084800F01CFF01211E2001F00AFA9D
S3150000136821460DF10602034800F018FFBDF80600F5
S3150000137802B010BD5C06002003791BB9024A136847
S3150000138801331360704700BF780500200379022BEC
S3150000139802D10022014B1A70704700BF7F0500205A
S315000013A80379022B0FD0042B00D070471A4A8168A4
S315000013B81378C8B25BB1012B10B421D0022B11D01F
S315000013C85DF8044B70470022144B1A70704740288A
S315000013D8EBD1134B1B78002BE7D101211148117073
S315000013E8037070470A28EBD100234FF0010C0D4912
S315000013F80D4809780A4C137084F800C04354DFE797
S315000014080D2806D0074B084C1A78501CA1541870A2
S31500001418D6E702231370D3E77D0500207E0500205A
S31500001428800500207C050020840500200FB470B5D7
S31500001438A2B026AB53F8042B802102A8019301F031
S3150000144879FE9DF908307BB101260A4C02AD0122CE
S3150000145829460948267000F069F82378002BFCD144
S3150000146815F9013F002BF2D122B0BDE8704004B057
S31500001478704700BF7E0500200C06002090F900305A
S315000014888BB170B505460126074C01222946074847
S31500001498267000F04BF82378002BFCD115F9013F94
S315000014A8002BF2D170BD70477F0500208006002012
S315000014B870B588B0EC460025084C094E0FCCACE850
S315000014C80F0094E80F008CE80F0069460548CDE93F
S315000014D8056500F073F808B070BD00BF98410000BC
S315000014E8A91300000C06002070B588B0EC4600254C
S315000014F8084C094E0FCCACE80F0094E80F008CE8B6
S315000015080F0069460548CDE9056500F057F808B0AB
S3150000151870BD00BF604200009513000080060020E1
S3150000152808B5FFF773FE002008BD00BF10B4046AB3
S31500001538A37803F07B03A3708378046A03F003039C
S31500001548D21A0B44C0E90332A37843F08003A37090
S315000015588378026A03F00303022B05D00B78002078
S31500001568D3705DF8044B70470B88002043F47E4324
S31500001578D3815DF8044B7047F0B5846A85B005469B
S315000015880F4694466E46B4B194E80F008DE80F00F6
S31500001598EB6920461B78A760236084F804C0EB6AD1
S315000015A8E3606B6A9847AC6A1CB196E80F0084E85A
S315000015B80F0005B0F0BD6C46EAE700BF01220346FE
S315000015C80878824012F0060F05D0CA695268127868
S315000015D8120700F1C18100224FF0010C00F58000CE
S315000015E82DE9F04100F58C500002C3E907101A7086
S315000015F84D6998785D628D696CF30100C3E90A2527
S31500001608987048789D78B0FA80F04009404200F01A
S31500001618030080EA0C0060F301059D7091F90B50F8
S31500001628CE4C680905F01F0620300CFA06F691F82C
S315000016380AE044F82060BFF34F8FBFF36F8FC848A6
S3150000164805F1C00650F8267062F3104740F8267078
S3150000165850F82660C34E4FEA0E1E67195FFA8EFED3
S3150000166887F800E346F8253091F9055091F804E02B
S315000016786F0905F01F0820370CFA08F844F8278088
S31500001688BFF34F8FBFF36F8F05F1C00750F8278060
S3150000169862F3104840F8278050F827704FEA0E1E6C
S315000016A867195FFA8EFE87F800E346F8253091F948
S315000016B8075091F806E06F0905F01F0820370CFA65
S315000016C808F844F82780BFF34F8FBFF36F8F05F1F3
S315000016D8C00750F8278062F3104840F8278050F872
S315000016E827704FEA0E1E67195FFA8EFE87F800E329
S315000016F846F8253091F9095091F808E06F0905F088
S315000017081F0820370CFA08F844F82780BFF34F8FD4
S31500001718BFF36F8F05F1C00750F8278062F31048B2
S3150000172840F8278050F827004FEA0E10C0B22C4424
S3150000173884F8000346F82530EFF310868CF31088FA
S315000017484FF000450C788848E540446824EA0504CB
S315000017584460406886F31088186A8270186A0271B5
S31500001768186A4272186A8272186AC272186A4283C2
S3150000177840F2F93208780CFA00FC1CEA020F02D093
S3150000178840201A6AD0740625012240F2F9301C6AF4
S3150000179825770C78A240024240F0CA80CA78487879
S315000017A88C78D200032842EA041200F0D18000287F
S315000017B80CBFE220F2201C6AD2B222701A6A0025F7
S315000017C89071CC69186A227B082A0EBF0A22520039
S315000017D802F0020242736278A078D201400100F05A
S315000017E82000D2B20243186A057220781D6A0238B0
S315000017F8012840F2A280D2B2EA7160681A6A847837
S3150000180854704578147865F301041470C478947498
S31500001818D479007804F0A30400F05C002043D0716A
S315000018280020C3E90300C3E90500DC694C4A94F9C2
S315000018380540CD6904F1C00152F8216095F800C051
S3150000184860F3104642F821600CF0030C52F82110A0
S31500001858BFF35F8F4FF0010E6109890004F01F0482
S3150000186801F1604101F561410EFA04F4C1F88041C5
S315000018780C60D96991F90B4004F1C00152F8216056
S3150000188860F3104642F8216052F82110BFF35F8FCB
S315000018986109890004F01F0401F160410EFA04F49D
S315000018A801F56141C1F880410C60D96991F9074099
S315000018B804F1C00152F8216060F3104642F8216035
S315000018C852F82110BFF35F8F6109890004F01F04E5
S315000018D801F160410EFA04F401F56141C1F8804155
S315000018E80C60D96991F9091001F1C00452F8246015
S315000018F860F3104642F8246052F82420BFF35F8F45
S315000019084A09920001F01F0102F160420EFA01F144
S3150000191802F56142C2F8801111601A6A4CF0700C27
S3150000192882F802C06989114A19815A60BDE8F081B6
S315000019384FF478401A6A908230E7FF206870207862
S31500001948022808BF42F01002186AD2B2C27167E7CD
S31500001958F22042F040022EE70320704700E100E043
S3150000196800600040F40600200040084055494353F3
S31500001978EFF30383103B1E4A5BB203F1C00152F832
S31500001988210020F4803042F8210052F82120194A1B
S3150000199852F82300C269036912690AB10BB170478C
S315000019A873B90021026A937803F07F0343F00403B6
S315000019B89370436AC16013B18022FFF7DDBD70479B
S315000019C88378026A03F00303022BC1680BD00B78F5
S315000019D8D3708278D0E9031302F003029B1A1144EC
S315000019E8C0E90313DAE70B8843F47E43D381F0E7B3
S315000019F800600040F406002010B582B0EFF30383C0
S31500001A08103B1F4A5BB203F1C00152F8210020F4D3
S31500001A18803042F8210052F821201A4A52F8234011
S31500001A28A278236A02F0030102290CBF198A5979A0
S31500001A38A3690CBFC1F30801C9B2019143B9636A2E
S31500001A48B3B10422204602B0BDE81040FFF794BDAA
S31500001A5802F0030201A9606901F094FBD4E90521AB
S31500001A68A37803F003031A44C91AC4E9052109B186
S31500001A7802B010BD636A002BFAD00122E2E700BF6C
S31500001A8800600040F406002010B5EFF303830E4A09
S31500001A98103B5CB252F82400026A937803F07B0389
S31500001AA89370436A1BB102220021FFF765FD074ABE
S31500001AB804F1C00352F8231021F4803142F82310B0
S31500001AC852F8233010BD00BFF40600200060004025
S31500001AD810B5EFF303831A4A103B5CB252F82400A0
S31500001AE88278036A02F00302022A0CBF198A59791E
S31500001AF893F804C00CBFC1F30801C9B21CF0100F5B
S31500001B080CF0380206D093F81CC01CF0010F08BF71
S31500001B1842F0400293F804C00CF0C70C83F804C0E6
S31500001B28436A0BB1FFF728FD064A04F1C00352F8D1
S31500001B38231021F4803142F8231052F8233010BDC7
S31500001B48F4060020006000400022034610461A6092
S31500001B58704700BF10B40B0A064C1B0153FA81F1FB
S31500001B6854F821300020C3F340035DF8044B13708A
S31500001B78704700BF00080840090A490101F1804181
S31500001B8801F500214B68002013807047090A4901B6
S31500001B9823EA020C01F180411A4001F5002142EACC
S31500001BA80C4200208A6070470120CBB2984080B270
S31500001BB802B900040B0A5B0103F1804303F5002315
S31500001BC898600020704700BF10B4090A490101F166
S31500001BD8804101F500210C6802EA030C4CEA040C6A
S31500001BE862EA030202EA0C020A6000205DF8044B6E
S31500001BF8704700BF090A490101F1804101F500213A
S31500001C084B680020C3F30F4313807047012310B4B9
S31500001C184FEA112C4FEA4C1C0CF1804C0CF5002CA9
S31500001C28DCF80440C9B28B4099B203EA14435B1A44
S31500001C38B3FA83F35B0900205DF8044B1370704711
S31500001C48090A490123EA020C01F180411A4001F50B
S31500001C58002142EA0C420020CA607047012010B4F5
S31500001C680B0A5B0103F1804303F50023C9B2DC6864
S31500001C7800FA01F1012A4FEA01400DBF84438C4363
S31500001C8804430C43DC6000205DF8044B704700BF3A
S31500001C982DE9F84F0388DBB182464FF0000B4FF071
S31500001CA80109DFF8D0800024304D4FEACB07DAF877
S31500001CB8043035F8022BD919898891420AD00134A3
S31500001CC8032CF4D1BAF800300BF1010B5B45EAD8C6
S31500001CD8BDE8F88FDB5909FA04F603F0B853B3F1F7
S31500001CE8807FF6B298F8BB3413D0334231D1204AFC
S31500001CF804F1200612F81630DB09E0D012F8163087
S31500001D08012123F08003C82002F8163000F032FDC6
S31500001D18D5E7334211D0164A04F1200112F81130E2
S31500001D28DB09CCD112F81130C82043F0800302F841
S31500001D381130012100F01EFDC1E7012000F0F8FD79
S31500001D4898F8BB340120334388F8BB3400F0C0FD53
S31500001D58E1E7012000F0ECFD98F8BB34012023EA06
S31500001D68060388F8BB3400F0B3FDC0E71C43000047
S31500001D780030084000E00140F8B50646FFF788FF46
S31500001D88EFF31082012383F31088234F3B681BB9B6
S31500001D982249CB704023CB703B6801333B6082F30A
S31500001DA81088338823B300211D4D08E01B01134416
S31500001DB845F82340328801318BB29A4218D97368A4
S31500001DC853F8314003EBC1029288E0034FEA12232D
S31500001DD8D2B2EBD502EB031055F820E024F4803C90
S31500001DE82EF4803E45F820E01B0145F820C0DEE7CA
S31500001DF8EFF31082012383F310883B6813B13B6825
S31500001E08013B3B603B681BB980200449CB70C87016
S31500001E1882F31088F8BD00BFF0060020000D0840C8
S31500001E280008084008B5034B03600846FFF7A4FFFF
S31500001E38002008BD54524F5008B50846FFF79CFFCE
S31500001E48002008BD70B5012686B001AB03A80C4674
S31500001E5815460493ADF80C60ADF808100192FFF72B
S31500001E6817FFEFF3108286F310881D490B681BB91C
S31500001E7840261C48C370C6700B6801330B6082F39A
S31500001E881088EA034FEA1423E4B219D41B01164A50
S31500001E98234442F82350EFF31082012383F310887A
S31500001EA80B6813B10B68013B0B600B681BB98020EC
S31500001EB80C49CB70C87082F31088002006B070BD3C
S31500001EC8094A04EB031052F820601B0126F48036F9
S31500001ED842F8206025F4803642F82060D7E700BF34
S31500001EE8F0060020000D08400008084003460020C0
S31500001EF8D3E902235360704770B5836984B00446FA
S31500001F088C46164601AD9BB193E8070085E80700A5
S31500001F1883F804C09E60E26918461A6063699847A8
S31500001F28A3691BB195E8070083E8070004B070BDF4
S31500001F382B46EDE7002800DA704710B400F160433D
S31500001F480901124CC9B203F5614383F80013104B1B
S31500001F5844F8202000F1C00253F8221021F4803101
S31500001F6843F8221053F82230BFF35F8F012243094A
S31500001F789B0000F01F0003F1604303F561438240B4
S31500001F88C3F880211A605DF8044B7047F4060020F8
S31500001F98006000404FF0010CF8B50A7C00260CFAE8
S31500001FA802F2C26002F00F02B2FA82F252094160EE
S31500001FB802740A7C4C4D0B4615442D0285604A690D
S31500001FC8044642618A69C0E90662CD69EFF3108763
S31500001FD88CF310884FF00040097C444AC8401169C8
S31500001FE821EA00011161126987F310884FF425412F
S31500001FF8A2681160A268D662A268D663A2689664CF
S315000020081878002603284FF00040197AA7684FEA87
S31500002018C15108BF41F480315A68F962A168013A92
S315000020280861A1684861A1688861A1684E62A168D3
S315000020388E62A168A869C861A168E8690862A16892
S315000020488A66A1684A666268A86BD26992F83010F7
S31500002058CE0705D5916AA6680139F16492F8301061
S31500002068890703D5D26AA168013A0A650022A168E0
S315000020788A63A168C1F88820AA6B3AB995F8212025
S3150000208895F82010520742EA4132104395F830205D
S315000020980326002A14BF4FF4A0074FF4AA0701210C
S315000020A8A2681764A2685063A2681663A2681163DF
S315000020B8D4E90221D160597C93F912002246FFF730
S315000020C839FF224695F8221095F92400FFF732FFCA
S315000020D895F92500224695F82310FFF72BFF044BA8
S315000020E800202360F8BD00BF90164000004008405D
S315000020F854504700F0B5EFF30382103A214C51B221
S3150000210801F1C00C54F82C3023F4803344F82C30F9
S315000021188B0003F1804303F5C043D3F800031A4844
S3150000212850F82100456895F800E0BEF1010F08D087
S3150000213843692BB1BDE8F04000221146FFF7DCBE2B
S31500002148F0BD0025D0E90267B760866802F0FF0295
S31500002158B5648668F5648668356554F82C6065F359
S31500002168104644F82C60D3F80033BFF35F8F074C52
S315000021784B0902F01F020EFA02F2603344F82320DC
S31500002188D6E700BF00600040F406002000E100E04A
S3150000219803461A689B8A00201380704703461B680B
S315000021A8103133F811300020138070472DE9F047BD
S315000021B8D1E9018E764B41F2360C1A680346086857
S315000021C85F681C681FFA80F97F69A4F804901C6888
S315000021D81FFA88F9A4F814901C681FFA8EF9A4F857
S315000021E808901C6820F0C0404FEA1049A4F80690F1
S315000021F81C6828F0C0484FEA1848A4F816801C68DE
S315000022082EF0C04E4FEA1E4E624EA4F80AE0366A19
S31500002218614DC6F3026802FA08F2C6F3021E22FAF4
S315000022280EF2A5FB025292090CFB02F2DFF878A126
S31500002238AAFB0242D1E90045920C0132072A45EA77
S31500002248040538BF072215F0005420D0EFF3108C90
S31500002258012484F31088514CE66826F48006E6606B
S31500002268E4688CF3108890264D4C26701C68D6B20C
S3150000227884F8DE600C688E6814F0005F0CBF4FF4BB
S3150000228880644FF48074B60048BF44F001046E00C1
S315000022980FD51D68D2B285F8DF200A6855008A680E
S315000022A84CBF44F4007444F40064520048BF44F040
S315000022B802041A68A4B25482CA68002A66D014892D
S315000022C826052ED42546AD050DD5D67C957C3543F9
S315000022D81E6886F8A6501D68D689A5F8A860158ACE
S315000022E81A68A2F8AA501A68A2F890401A680C8AC6
S315000022F8A2F880403A796AB1B0FA80F01C68228860
S3150000230892B222F01F021F32121A92B22280988AC3
S3150000231802439A82234A0020DA600A681A61BDE8F5
S31500002328F0871D68A5F890401D685689A5F89C6039
S315000023381D689689A5F89E6015681E681FFA85FCB3
S31500002348A6F894C04FEA154C1E682CF4C04C1FFA28
S315000023588CFCA6F896C01E68C5F3417586F892509F
S3150000236855681E681FFA85FCA6F898C04FEA154CF2
S315000023781E682CF4C04C1FFA8CFCA6F89AC01E687E
S31500002388C5F3417586F8935015899CE71446AAE764
S315000023982007002000E00140D34D621000400840AD
S315000023A800300F404344415283DE1B4310B400F112
S315000023B8604C134C0901134BC9B20CF5614C8CF8EF
S315000023C8001300F1C00144F8202053F8212022F41C
S315000023D8803243F8212053F82130BFF35F8F012262
S315000023E843099B0000F01F0003F1604303F56143B6
S315000023F88240C3F880211A605DF8044B704700BF1D
S31500002408F40600200060004000222DE9F8434E69DA
S315000024184160CB68044683610B690D46C0E9072312
S315000024280B885B0203F1804303F5B8130360486920
S315000024388B78827807795B03002A6AD143F4507156
S31500002448002F6BD189B2A1828278C77812022B79C4
S3150000245807F03F0702F47C523A43EF78DB0343EA7E
S315000024684703477890F800E043EA4713EFF31089EB
S315000024784FF0010C8CF31088B5F800802D4FC8F189
S3150000248810080CFA08FCD7F80C8028EA0C0CC7F8D8
S315000024980CC0FF6889F3108847F6FF57394027684C
S315000024A892B2398021689BB20A822268D381236856
S315000024B883F80CE083792268A3F10103B3FA83F366
S315000024C85B0982F8D03095F90600002803DB22461E
S315000024D8697AFFF76BFF95F90700002803DB2246A8
S315000024E8A97AFFF763FF96F90700002803DB22465F
S315000024F8717AFFF75BFF96F90800002803DB22468E
S31500002508B17AFFF753FF00200B4B2061A360BDE8AB
S31500002518F8833F2A43F4107108D117B141F08001BE
S3150000252890E743F4024141F040018BE7002F89D040
S31500002538F4E700BF0040084043444152064B0749B0
S3150000254893F826001A6A51F82030C2F30262044949
S31500002558D3400B60704700BF00E001400005002033
S3150000256820070020704700BFF8B54AF20350012340
S315000025784549464AA1F8FE03A2F80431B2F80431E7
S315000025889BB2002BFAD101204FF400454FF0090CFD
S315000025983F4CDFF818E13F4EC4F804E0DFF810E1DD
S315000025A83D4FC4F80CE0A2F800013C4A3649B06039
S315000025B830602760A5602561626191F82620086A67
S315000025C854F82220364EC0F30260C240326081F8C9
S315000025D8133481F8A2C091F880341BB991F881347C
S315000025E899074CD0284D95F88034002B3CD0002212
S315000025F8254B83F8812483F880240023224981F817
S31500002608323091F83C301A07FBD543F2021000230A
S315000026181D4A088581F82A3092F83C309B06FBD57E
S315000026280320052319494FF0F10C81F81C011D49B7
S31500002638116282F8263092F82630156A54F823007B
S31500002648C5F30264E04030600123F0244FF42540CE
S31500002658154981F80CC00B720C7382F8303082F879
S315000026685230A2F8FE03F8BD0121C82085F880146F
S3150000267800F080F895F88034012BFBD1B7E74FF4CA
S315000026887A70FFF76FFFB8E700E0014000C001402D
S315000026980005002000700040002D310100C2EB0B40
S315000026A820070020211201200020004000127A0095
S315000026B800366E0138B50025284C0121C82084F85B
S315000026C8285000F057F884F8245094F82430002B4A
S315000026D8FBD194F82430214943F0020384F82430CE
S315000026E891F82430C3F340009B07F9D41B4A81F8BC
S315000026F8220092F8223003F0FF00002BF9D192F85D
S315000027084030164960F3C71382F8403091F84030DC
S31500002718DB09FBD191F84200104A63F3C71081F830
S31500002728420092F84230DB09FBD192F844000B498B
S3150000273863F3C71082F8440091F84430C3F3C01419
S31500002748DB09F9D1012000F0F3F8054B012083F8E5
S31500002758BB44BDE8384000F0BBB800BF00300840B5
S3150000276800E00140704700BFA0F101000028FBD13E
S31500002778704700BF1F4B204A1B6800FB01F19342BC
S3150000278813D302F1854202F5071203F5741302F614
S31500002798834203F6FF03A2FB03231B0DA3FB0131B0
S315000027A84FF0FF30F9B1FFF7DFBF4FF47A7210B47C
S315000027B8A1FB02C41148B0FBF3F34FF0FF3044B954
S315000027C8BCFBF3FC4FEA9C0088B15DF8044BFFF7AD
S315000027D8CBBF9B00B1FBF3F1A1FB0212002AF4D197
S315000027E8084620B1F1E71846002BDCD170475DF8A2
S315000027F8044B70472007002000127A0000CA9A3B53
S3150000280870B500240B4B0C4EB3F82021B3F8405199
S31500002818ADB2154025FA04F3DB0704D556F8243083
S31500002828E0B203B198470134102CF3D1014BA3F859
S31500002838305170BD00600040B006002030B503205E
S3150000284885B000F075F800256FF0FF014FF0FF30F6
S315000028581B4B1C4C996422462B464FF0010ECDE9C2
S315000028680100039032F8021F0EFA03FC013311B17E
S31500002878012520EA0C00092BF4D1F5B10190124B81
S315000028880F4A1067C3F88002029903205167C3F8FC
S31500002898841203999167C3F8881200F019F8002387
S315000028A80A4834F8022F03F1C00101330AB140F88F
S315000028B82120092BF5D105B030BD4FF0FF30DEE7FA
S315000028C8008000400643000000E100E00060004090
S315000028D8EFF31081012383F31088124B33F810208D
S315000028E892B22AB133F81020013A92B223F8102096
S315000028F833F810309BB293B910B40B4A0B4CB2F8AC
S31500002908FE3334F810009BB243F4254323EA000350
S31500002918A2F8FE3381F310885DF8044B704781F303
S31500002928108870471807002000E001403044000076
S3150000293830B4EFF31081012383F310880E4A32F87E
S3150000294810309BB26BB90D4C0D4DB4F8FE3335F80B
S3150000295810C09BB243EA0C0343F425439BB2A4F888
S31500002968FE3332F8103001339BB222F8103081F36F
S31500002978108830BC704700BF1807002000E00140EF
S315000029883044000008B500F0EBFB0C2203461A6041
S315000029984FF0FF3008BD00BF00BE704708B500F015
S315000029A835F8FEF7BDFDFEE7F8B5174F05463E6854
S315000029B8A6B17C6806EB460604EB860602E00C34F4
S315000029C8B4420BD0637AAB42F9D1D4E900020021B4
S315000029D8121A0C3400F0BCFBB442F3D1BE6896B1AF
S315000029E8FC6804EB061602E01034A6420BD0637BA3
S315000029F8AB42F9D1D4E90002A168121A103400F0EA
S31500002A08C1FBA642F3D1F8BD584300004FF470014C
S31500002A18274B284A70B50020C3F888109A60FEF73D
S31500002A2811FCFFF7A1FD0120FEF70CFC224B83F3F6
S31500002A380A880020FFF7B8FFFFF780FDFFF73AFE88
S31500002A480320FFF775FF00234FF6FF701B4903F1BC
S31500002A58080201330C2B21F81200F8D100240320B8
S31500002A68FFF736FF0320FFF763FF154B03205C6073
S31500002A789C60DC601C61FFF72BFF0220FEF7E2FB7F
S31500002A880120FFF791FF0F4D0F4B5B1BA3424FEA47
S31500002A98A30605DD55F8043B01349847A642F9DC40
S31500002AA8FFF7CCFEBDE870400020FFF75BBE00BF15
S31500002AB800ED00E00000000000010020000D0840C5
S31500002AC800000E40C4440000C844000070B54FF032
S31500002AD8FF0C4CF4E06C1CEA11541DBF1CEA13559C
S31500002AE894EA0C0F95EA0C0F00F0DEF82C4481EA04
S31500002AF8030621EA4C5123EA4C5350EA013518BF24
S31500002B0852EA033541F4801143F4801338D0A0FB10
S31500002B1802CE4FF00005E1FB02E506F00042E0FBBD
S31500002B2803E54FF00006E1FB03569CF0000F18BFC3
S31500002B384EF0010EA4F1FF04B6F5007F64F540746B
S31500002B4804D25FEA4E0E6D4146EB060642EAC621FE
S31500002B5841EA55514FEAC52040EA5E504FEACE2E6B
S31500002B68B4F1FD0C88BFBCF5E06F1ED8BEF1004F6E
S31500002B7808BF5FEA500E50F1000041EB045170BDEA
S31500002B8806F0004646EA010140EA020081EA03012E
S31500002B98B4EB5C04C2BFD4EB0C0541EA045170BD2A
S31500002BA841F480114FF0000E013C00F3AB8014F1A4
S31500002BB8360FDEBF002001F0004170BDC4F10004ED
S31500002BC8203C35DA0C341BDC04F11404C4F120056E
S31500002BD800FA05F320FA04F001FA05F240EA0200C9
S31500002BE801F0004221F0004110EBD37021FA04F6FF
S31500002BF842EB06015EEA430E08BF20EAD37070BDB9
S31500002C08C4F10C04C4F1200500FA04F320FA05F017
S31500002C1801FA04F240EA020001F0004110EBD37019
S31500002C2841F100015EEA430E08BF20EAD37070BD89
S31500002C38C4F1200500FA05F24EEA020E20FA04F362
S31500002C4801FA05F243EA020321FA04F001F0004111
S31500002C5821FA04F220EA020000EBD3705EEA430E82
S31500002C6808BF20EAD37070BD94F0000F0FD101F0B1
S31500002C780046400041EB010111F4801F08BF013CEA
S31500002C88F7D041EA060195F0000F18BF704703F028
S31500002C980046520043EB030313F4801F08BF013DAF
S31500002CA8F7D043EA0603704794EA0C0F0CEA13556B
S31500002CB818BF95EA0C0F0CD050EA410618BF52EA25
S31500002CC84306D1D181EA030101F000414FF000002B
S31500002CD870BD50EA410606BF1046194652EA430639
S31500002CE819D094EA0C0F02D150EA013613D195EAAD
S31500002CF80C0F05D152EA03361CBF104619460AD1F5
S31500002D0881EA030101F0004141F0FE4141F47001FE
S31500002D184FF0000070BD41F0FE4141F4780170BDEE
S31500002D2881F0004102E000BF83F0004330B54FEA6E
S31500002D3841044FEA430594EA050F08BF90EA020FDB
S31500002D481FBF54EA000C55EA020C7FEA645C7FEA6E
S31500002D58655C00F0E2804FEA5454D4EB5555B8BF91
S31500002D686D420CDD2C4480EA020281EA030382EA02
S31500002D78000083EA010180EA020281EA0303362D94
S31500002D8888BF30BD11F0004F4FEA01314FF4801C67
S31500002D984CEA113102D0404261EB410113F0004F79
S31500002DA84FEA03334CEA133302D0524263EB430330
S31500002DB894EA050F00F0A780A4F10104D5F1200ECE
S31500002DC80DDB02FA0EFC22FA05F2801841F1000129
S31500002DD803FA0EF2801843FA05F359410EE0A5F1FD
S31500002DE820050EF1200E012A03FA0EFC28BF4CF02E
S31500002DF8020C43FA05F3C01851EBE37101F00045E4
S31500002E0807D54FF0000EDCF1000C7EEB00006EEBF0
S31500002E180101B1F5801F1BD3B1F5001F0CD349087A
S31500002E285FEA30004FEA3C0C04F101044FEA4452D1
S31500002E3812F5800F80F09A80BCF1004F08BF5FEA58
S31500002E48500C50F1000041EB045141EA050130BD38
S31500002E585FEA4C0C404141EB0101013C28BFB1F54A
S31500002E68801FE9D291F0000F04BF01460020B1FA95
S31500002E7881F308BF2033A3F10B03B3F120020CDA68
S31500002E880C3208DD02F1140CC2F10C0201FA0CF046
S31500002E9821FA02F10CE002F11402D8BFC2F1200CAB
S31500002EA801FA02F120FA0CFCDCBF41EA0C01904061
S31500002EB8E41AA2BF01EB0451294330BD6FEA0404AA
S31500002EC81F3C1CDA0C340EDC04F11404C4F1200295
S31500002ED820FA04F001FA02F340EA030021FA04F3A7
S31500002EE845EA030130BDC4F10C04C4F1200220FAFE
S31500002EF802F001FA04F340EA0300294630BD21FA3C
S31500002F0804F0294630BD94F0000F83F4801306BF01
S31500002F1881F480110134013D4EE77FEA645C18BFF5
S31500002F287FEA655C29D094EA050F08BF90EA020F8C
S31500002F3805D054EA000C04BF1946104630BD91EA84
S31500002F48030F1EBF0021002030BD5FEA545C05D187
S31500002F584000494128BF41F0004130BD14F58004C6
S31500002F683CBF01F5801130BD01F0004545F0FE413A
S31500002F7841F470014FF0000030BD7FEA645C1ABF6F
S31500002F88194610467FEA655C1CBF0B46024650EAA6
S31500002F98013406BF52EA033591EA030F41F40021D2
S31500002FA830BD00BF90F0000F04BF0021704730B558
S31500002FB84FF4806404F132044FF000054FF000012D
S31500002FC850E700BF90F0000F04BF0021704730B5EE
S31500002FD84FF4806404F1320410F0004548BF4042C3
S31500002FE84FF000013EE700BF42004FEAE2014FEA18
S31500002FF831014FEA02701FBF12F07F4393F07F4FF3
S3150000300881F06051704732F07F4208BF704793F0F5
S315000030187F4F04BF41F40021704730B54FF4607408
S3150000302801F0004521F000411CE700BF50EA01020B
S3150000303808BF704730B54FF000050AE050EA0102B4
S3150000304808BF704730B511F0004502D5404261EB24
S3150000305841014FF4806404F132045FEA915C3FF465
S31500003068D8AE4FF003025FEADC0C18BF03325FEA02
S31500003078DC0C18BF033202EBDC02C2F1200300FAB3
S3150000308803FC20FA02F001FA03FE40EA0E0021FAD8
S3150000309802F11444BDE600BF4A0011D212F500122F
S315000030A811D20DD56FF47873B3EB62520ED44FEA92
S315000030B8C12343F0004343EA505323FA02F0704712
S315000030C84FF00000704750EA013002D14FF0FF3050
S315000030D870474FF00000704730B514469BB0054660
S315000030E81A46002C05DA8B2303604FF0FF301BB01D
S315000030F830BD4FF40273009104916946ADF80C3067
S315000031084FF00003199314BF04F1FF3323460293CB
S3150000311805934FF6FF73ADF80E301E9B00F098F935
S31500003128431CBCBF8B232B60002CE0D0009B0022E5
S315000031381A70DCE707B5009313460A4601460348AA
S315000031480068FFF7C9FF03B05DF804FB9400002090
S3150000315802440346934200D1704703F8011BF9E77E
S31500003168014B1868704700BF9400002070477047ED
S3150000317810F8012B11F8013B012A28BF9A42F7D013
S31500003188D01A70470A44431E914200D1704710B5C1
S3150000319811F8014B914203F8014FF9D110BD000017
S315000031A838B50546002941D051F8043C0C1F002BC0
S315000031B8B8BFE41800F0E0F81D4A136833B9636035
S315000031C814602846BDE8384000F0DCB8A34208D9A8
S315000031D8206821188B4201BF19685B6809182160AD
S315000031E8EDE71A465B680BB1A342FAD91168501885
S315000031F8A0420BD120680144501811608342E0D1E7
S3150000320818685B68084453601060DAE702D90C2333
S315000032182B60D6E7206821188B4202BF19685B68C5
S315000032280918636008BF21605460CAE738BD00BF4B
S315000032386808002070B50F4E0C460546316811B96E
S3150000324800F0B0FB30602146284600F0ABFB431C7B
S3150000325803D14FF0FF34204670BDC41C24F003048C
S31500003268A042F8D0211A284600F09CFB0130F2D182
S31500003278EFE700BF640800202DE9F843CD1C064699
S3150000328825F0030508350C2D38BF0C25002D01DB6C
S31500003298A94204D90C2333600020BDE8F883DFF87F
S315000032A8D48000F069F8D8F800301C4644BB29469B
S315000032B83046FFF7BFFF431C044658D1D8F80040F4
S315000032C82746002F43D1002C4BD023683946304679
S315000032D804EB030900F066FB814542D121683046BC
S315000032E86D1A2946FFF7A6FF01303AD023682B440A
S315000032F82360D8F800305A6862BBC8F800700FE03F
S315000033082268521B20D40B2A17D96119A3422560BB
S3150000331818BF5960636808BFC8F8001062514B604F
S31500003328304600F02FF804F10B00231D20F00700AB
S31500003338C21A1CBF1B1AA350AFE76268A3420CBF90
S31500003348C8F800205A60EBE723466468AEE73C46B7
S315000033587F68B6E71A465B68A342FBD10023536031
S31500003368DEE70C233046336000F00CF894E705607E
S31500003378D6E700BF680800200148FFF7F7BE00BF80
S31500003388600800200148FFF7F2BE00BF6008002071
S315000033982DE9F0471F468E6882460C46BE42904687
S315000033A8334653D8B1F90C0010F4906F2BD06569E9
S315000033B82368096905EB4505A3EB010905EBD575F6
S315000033C87B1C6D104B442A46AB4284BF1D462A46D9
S315000033D8430527D511465046FFF74EFF064658B314
S315000033E84A462169FFF7CEFEA38923F4906343F08A
S315000033F88003A38126614E4465613B46A5EB09051A
S3150000340826603E46A5601F463A464146206800F0BB
S31500003418AFFAA36800209B1BA36023683B44236084
S31500003428BDE8F087504600F0DBFA06460028E1D1F1
S3150000343821695046FFF7B4FE0C234FF0FF30CAF857
S315000034480030A38943F04003A381E9E73E46DBE762
S315000034582DE9F0471F468B899CB006461B060D468C
S31500003468144610D50B6973B94021FFF705FF28608C
S31500003478286130B90C2333604FF0FF301CB0BDE82B
S31500003488F08740236B61002303974FF00108674FCD
S31500003498099320238DF8293030238DF82A302346C6
S315000034A8994613F8012B0AB1252AF9D1B9EB040A72
S315000034B80BD05346224629463046FFF769FF0130AE
S315000034C800F0A480099A5244099299F80030002B1A
S315000034D800F09C8000234FF0FF3209F101090493A4
S315000034E807938DF853301A93CDE905234C460522E8
S315000034F84E4814F8011B00F065FA049BD0B9D806AB
S3150000350844BF20228DF85320190744BF2B228DF87B
S31500003518532099F800202A2A13D0079A4C460020EF
S315000035284FF00A0C214611F8013B303B092B49D9CB
S3150000353868B913E0C01BA14608FA00F018430490C6
S31500003548D4E7039A111D1268002A039101DB07923A
S3150000355804E0524243F002030792049323782E2B89
S315000035680AD163782A2B32D1039B02341A1D1B68B1
S3150000357843EAE37303920593DFF8C09003222178A8
S31500003588484600F01FFA38B1A0EB09004022049B18
S31500003598013482401343049314F8011B062224487D
S315000035A88DF8281000F00EFA002835D0214818BBEF
S315000035B8039B073323F0070308330393099B03444C
S315000035C809936CE70CFB02320C460120AAE700239C
S315000035D801344FF00A0C19460593204610F8012BC2
S315000035E8303A092A03D9002BC6D00591C4E70CFB4B
S315000035F8012104460123F0E703AB2A4604A9304615
S3150000360800930D4BAFF30080421CD7D1AB895B0604
S315000036183FF532AF099831E703AB2A4604A930468D
S315000036280093054B00F07EF8EEE700BF3844000033
S315000036384244000000000000993300003E440000A8
S315000036482DE9F047164698468A6807460B690C46E0
S31500003658DDF820909342B8BF1346336091F84320B3
S315000036680AB1013333602368990642BF33680233CF
S315000036783360256815F0060506D104F1190AE368D2
S3150000368832689B1AAB422BDC94F843302268003B25
S3150000369818BF0123920630D404F143024146384646
S315000036A8C847013023D023681A3454F80A2C03F08B
S315000036B80603042B0ABF54F80E5C002533684FF046
S315000036C8000608BFED1A54F8123C08BF25EAE5754E
S315000036D89342C4BF9B1AED18B5421AD1002008E0E0
S315000036E80123524641463846C847013003D14FF0B8
S315000036F8FF30BDE8F0870135C1E7E1185A1C3020D4
S315000037080233224481F8430094F8451082F84310A6
S31500003718C2E70123224641463846C8470130E6D06B
S315000037280136D9E72DE9F0430D7E85B09046074668
S31500003738782D0C4699460C9E01F1430207D8622D56
S315000037480AD8002D00F0D780582D00F0BC8004F16F
S31500003758420684F842503BE0A5F16303152BF6D8E0
S3150000376801A151F823F000BFC9370000DD3700007A
S315000037785737000057370000573700005737000003
S31500003788DD3700005737000057370000573700006D
S3150000379857370000E5380000073800009738000062
S315000037A85737000057370000073900005737000021
S315000037B80738000057370000573700009F380000C9
S315000037C833681A1D1B68326004F1420684F84230D9
S315000037D80123A1E033682068191D3160060601D56A
S315000037E81D6803E04506FBD5B3F90050002D03DA42
S315000037F82D236D4284F843305B480A2311E0216883
S315000038083368080653F8045B02D4490648BFADB2CC
S315000038183360237E54486F2B5CD10823002184F83B
S3150000382843106668002EA66005DB21682E4321F04A
S315000038380401216050D01646B5FBF3F103FB115C79
S3150000384810F80CC006F801CDAC460D466345F3D911
S31500003858082B0BD12368DB0708D5236961689942D1
S31500003868DEBF302306F8013C06F1FF36921B2261C3
S31500003878434603AA21463846CDF80090FFF7E0FEF6
S3150000388801304ED14FF0FF3005B0BDE8F083236814
S3150000389843F02003236078253448236884F845508C
S315000038A813F0800F316851F8045B03D113F0400F11
S315000038B818BFADB23160D90744BF43F02003236077
S315000038C81DB11023AAE72848E7E7236823F0200359
S315000038D82360F6E70A23A1E71646B9E733682568A1
S315000038E8181D616930602E061B6801D5196002E053
S315000038F86806FBD51980002316462361B8E73368A6
S3150000390800211A1D32601E686268304600F05AF8B7
S3150000391808B1801B606063682361002384F8433024
S31500003928A6E72369324641463846C8470130A9D03A
S3150000393823689B0713D4E068039B9842B8BF1846D0
S31500003948A2E70123324641463846C847013099D096
S315000039580135E36803995B1AAB42F2DCEBE7002515
S3150000396804F11906F5E700BF494400005A4400006F
S31500003978884210B501EB020402D98442234607D8CF
S31500003988431EA14207D011F8012B03F8012FF8E7CF
S315000039980244824200D110BD13F8011D02F8011D30
S315000039A8F7E7000038B50023054D044608462B60A6
S315000039B8FEF7E8FF431C02D12B6803B1236038BD2C
S315000039C85C080020C9B20346024410B59342184663
S315000039D801D1002003E0047801338C42F6D110BDF2
S315000039E82DE9F041074614460D4621B91146BDE8B2
S315000039F8F041FFF741BC2AB92546FFF7D1FB284617
S31500003A08BDE8F08100F01AF88442064602D8B4EB05
S31500003A18500FF4D821463846FFF72EFC804608B9E1
S31500003A284546ECE7B4422246294628BF3246FFF708
S31500003A38A9FB29463846FFF7B3FBF1E751F8043CE2
S31500003A48181F002BBCBF0B58C01870470000000099
S31500003A58000000000000000000000000000000F860
S31500003A6800000000000000333000000000100C06C3
S31500003A78100C0600000000000000000040C078405E
S31500003A88C0784000043F04043F040400007088FC2A
S31500003A9808300000001820FF211E0000F008F00082
S31500003AA8E018000000211C031E211E0000F00888F3
S31500003AB8700000001E2123241927211010160E005D
S31500003AC8000000000000000000000000000000E008
S31500003AD8180402000000000718204000000204181D
S31500003AE8E00000000040201807000000404080F079
S31500003AF8804040000202010F01020200000000F0AF
S31500003B08000000000101011F010101000000000082
S31500003B180000000080B070000000000000000000F7
S31500003B280000000000010101010101010000000080
S31500003B380000000000303000000000000000000017
S31500003B4880601804006018060100000000E01008F4
S31500003B580810E000000F102020100F00001010F8C9
S31500003B68000000000020203F202000000070080808
S31500003B780888700000302824222130000030088888
S31500003B88884830000018202020110E000000C020B0
S31500003B9810F8000000070424243F240000F80888D1
S31500003BA8880808000019212020110E0000E010885E
S31500003BB888180000000F112020110E000038080890
S31500003BC8C83808000000003F0000000000708808A0
S31500003BD808887000001C222121221C0000E0100821
S31500003BE80810E0000000312222110F00000000C07A
S31500003BF8C000000000000030300000000000008017
S31500003C080000000000008060000000000000804006
S31500003C18201008000001020408102000404040401F
S31500003C284040400004040404040404000008102072
S31500003C3840800000002010080402010000704808B7
S31500003C480808F0000000003036010000C030C8281F
S31500003C58E810E0000718272423140B000000C038DA
S31500003C68E0000000203C23020227382008F8888854
S31500003C7888700000203F202020110E00C030080860
S31500003C8808083800071820202010080008F8080837
S31500003C980810E000203F202020100F0008F8888830
S31500003CA8E8081000203F20202320180008F88888FC
S31500003CB8E8081000203F200003000000C030080874
S31500003CC80838000007182020221E020008F80800FD
S31500003CD80008F808203F210101213F20000808F8C4
S31500003CE8080800000020203F2020000000000808E7
S31500003CF8F8080800C08080807F00000008F888C0A7
S31500003D0828180800203F20012638200008F8080057
S31500003D1800000000203F20202020300008F8F8008E
S31500003D28F8F80800203F003F003F200008F830C0A0
S31500003D380008F808203F200007183F00E010080890
S31500003D480810E0000F10202020100F0008F80808BF
S31500003D580808F000203F210101010000E0100808D2
S31500003D680810E0000F18242438504F0008F88888F7
S31500003D7888887000203F2000030C302000708808D7
S31500003D88080838000038202121221C00180808F8E5
S31500003D98080818000000203F2000000008F8080066
S31500003DA80008F808001F202020201F000878880037
S31500003DB800C83808000007380E010000F80800F8A7
S31500003DC80008F800033C0700073C03000818688051
S31500003DD88068180820302C03032C30200838C800C7
S31500003DE8C83808000000203F200000001008080816
S31500003DF8C83808002038262120201800000000FEB8
S31500003E08020202000000007F40404000000C30C063
S31500003E1800000000000000010638C000000202028F
S31500003E28FE000000004040407F0000000000040241
S31500003E38020204000000000000000000000000006C
S31500003E48000000008080808080808080000202045C
S31500003E580000000000000000000000000000808054
S31500003E68808000000019242222223F2008F80080C2
S31500003E7880000000003F112020110E000000008085
S31500003E8880800000000E1120202011000000008014
S31500003E988088F800000E112020103F200000808046
S31500003EA880800000001F222222221300008080F05A
S31500003EB8888888180020203F202000000000808085
S31500003EC880808000006B94949493600008F80080CA
S31500003ED880800000203F210000203F200080989825
S31500003EE8000000000020203F202000000000008085
S31500003EF89898000000C08080807F000008F80000C5
S31500003F0880808000203F24022D302000000808F819
S31500003F18000000000020203F2020000080808080D4
S31500003F2880808000203F20003F20003F8080008066
S31500003F3880800000203F210000203F200000808074
S31500003F4880800000001F202020201F008080008025
S31500003F588000000080FFA12020110E0000000080D4
S31500003F6880808000000E112020A0FF8080808000C5
S31500003F788080800020203F212000010000008080F2
S31500003F88808080000033242424241900008080E0E7
S31500003F98808000000000001F2020000080800000B4
S31500003FA800808000001F202020103F208080800095
S31500003FB80080808000010E300806010080800080A5
S31500003FC8008080800F300C030C300F0000808000CA
S31500003FD8808080000020312E0E31200080808000F5
S31500003FE80080808080818E701806010000808080A5
S31500003FF8808080000021302C222130000000000043
S31500004008807C020200000000003F404000000000E3
S31500004018FF00000000000000FF0000000002027C14
S31500004028800000000040403F00000000000601013B
S3150000403802020404000000000000000048656C6CE1
S315000040486F2C0000000000005241364D352100005B
S31500004058BBB6D3ADCAB9D3C35261364D35000000DD
S315000040684D414E2C000000004155542C0000000024
S315000040784C696768743A00004469733A00000000A6
S31500004088636D00004C45443A000000005155455206
S3150000409859000000234F4B0D0A000000CDF8C2E777
S315000040A8BFAA00004E4545445F434F4E4649470068
S315000040B8C7EBC5E4CDF80000434F4E4649475F4578
S315000040C84E440000D2D1B1A3B4E60000D6B8CABEA9
S315000040D8B5C6CAD6B6AFBFAAC6F40000D6B8CABE19
S315000040E8B5C6D7D4B6AFC4A3CABD0000D5FDD4DAC9
S315000040F8C6F4B6AFB1A8BEAF0000000023534F53B5
S315000041080D0A00004C4F435F494E5641494C440046
S31500004118CEBBD6C3CEDED0A700000000534F535FF8
S3150000412853454E5400000000D2D1B7A2CBCD0000B3
S31500004138CDF8C2E7B3ACCAB100000000BEE0C0EBE0
S31500004148B9FDBDFC00000000BEE0C0EBD5FDB3A381
S3150000415800000000B9E2CFDFB9FDB0B52CBEAFCA8A
S31500004168BEB5C6D2D1BFAAC6F4000000B9E2CFDFF9
S31500004178D5FDB3A32CBEAFCABEB5C6D2D1B9D8B188
S31500004188D5000000040600209442000024430000E5
S31500004198060200000C000C010C020C0300000000D3
S315000041A800000000A913000000000000B84100004C
S315000041B8000100008C0000200F00FFFF0000000037
S315000041C8FFFF000000000000A086010000000000BC
S315000041D850C3000000020400811300000000000024
S315000041E8EC41000000000000000000000000000094
S315000041F800000000000000000000000000000000B1
S31500004208000000000000FFFFDFDF000000000000E4
S315000042180000000000000000000000000000000090
S315000042288000000000000000000000000000000000
S315000042380000001800000000000FDFDF00FFFF008D
S3150000424800000000000000005442000000003F3F4C
S31500004258000000DFDFFFFF00000200000C050C066F
S315000042680C070C0800000000000000009513000071
S3150000427800000000804200000001000090000020BD
S315000042880F00FFFF00000000FFFF00000D00000008
S31500004298A042000000000000040000000300000027
S315000042A80400000004000000008000000700000071
S315000042B800000104000100000000010401010000E3
S315000042C805040000050100001000000007010000B9
S315000042D800000100080100000000010000030000C2
S315000042E800000104040300000000010405030000A7
S315000042F80504000000040000040400000206000093
S31500004308A401A501A601A701C600800181018201B9
S315000043188301000002040304040400002D1E0000AB
S31500004328511B0000411E00004D1E0000151C000018
S31500004338651C00005D1B0000B11B0000D11B0000BE
S31500004348FD1B0000491C0000811B0000951B000096
S31500004358040000000044000008000000804300003C
S3150000436802000000704300000000006800000068BA
S31500004378000100200001002000000068000000681D
S315000043880000006000010C080000006800000068DA
S3150000439800000070000109080000006800000068BD
S315000043A8000000080001020800000068000000681C
S315000043B86400000000010108000000200000002041
S315000043C80000006000010C0300000020000000202F
S315000043D80000007000010903000000200000002012
S315000043E8000000080000020300000020E40000208E
S315000043F86400000000000103000000680000006877
S3150000440800010008000000680000006800010008BC
S31500004418E400002000010020000000032005002021
S315000044286C080020000000030100020008001000CC
S31500004438232D302B2000686C4C006566674546477F
S315000044480030313233343536373839414243444502
S315000044584600303132333435363738396162636471
S31500004468656600004275696C742077697468205225
S31500004478656E6573617320416476616E6365642059
S31500004488466C657869626C6520536F6674776172ED
S3150000449865205061636B6167652076657273696F25
S315000044A86E20362E302E3000362E302E300000008C
S309000044B800000006F4
S309000044BCF8B500BF8A
S309000044C0F8B500BF86
S309000044C4B501000038
S309000044C88D0100005C
S3090100A100FFFFFFFF58
S3090100A200FFFDFFFF59
S3090100A280F8F8FFFFE5
S705000029A52C
